{"project/contracts/MarzToken.sol":{"MarzToken":{"abi":[{"inputs":[{"internalType":"string","name":"name","type":"string"},{"internalType":"string","name":"symbol","type":"string"},{"internalType":"uint256","name":"initialSupply","type":"uint256"},{"internalType":"address","name":"_treasuryAddress","type":"address"}],"stateMutability":"nonpayable","type":"constructor"},{"inputs":[{"internalType":"address","name":"spender","type":"address"},{"internalType":"uint256","name":"allowance","type":"uint256"},{"internalType":"uint256","name":"needed","type":"uint256"}],"name":"ERC20InsufficientAllowance","type":"error"},{"inputs":[{"internalType":"address","name":"sender","type":"address"},{"internalType":"uint256","name":"balance","type":"uint256"},{"internalType":"uint256","name":"needed","type":"uint256"}],"name":"ERC20InsufficientBalance","type":"error"},{"inputs":[{"internalType":"address","name":"approver","type":"address"}],"name":"ERC20InvalidApprover","type":"error"},{"inputs":[{"internalType":"address","name":"receiver","type":"address"}],"name":"ERC20InvalidReceiver","type":"error"},{"inputs":[{"internalType":"address","name":"sender","type":"address"}],"name":"ERC20InvalidSender","type":"error"},{"inputs":[{"internalType":"address","name":"spender","type":"address"}],"name":"ERC20InvalidSpender","type":"error"},{"inputs":[{"internalType":"address","name":"owner","type":"address"}],"name":"OwnableInvalidOwner","type":"error"},{"inputs":[{"internalType":"address","name":"account","type":"address"}],"name":"OwnableUnauthorizedAccount","type":"error"},{"inputs":[],"name":"ReentrancyGuardReentrantCall","type":"error"},{"anonymous":false,"inputs":[{"indexed":true,"internalType":"address","name":"owner","type":"address"},{"indexed":true,"internalType":"address","name":"spender","type":"address"},{"indexed":false,"internalType":"uint256","name":"value","type":"uint256"}],"name":"Approval","type":"event"},{"anonymous":false,"inputs":[{"indexed":false,"internalType":"uint256","name":"amount","type":"uint256"}],"name":"Burned","type":"event"},{"anonymous":false,"inputs":[{"indexed":true,"internalType":"address","name":"previousOwner","type":"address"},{"indexed":true,"internalType":"address","name":"newOwner","type":"address"}],"name":"OwnershipTransferred","type":"event"},{"anonymous":false,"inputs":[{"indexed":true,"internalType":"address","name":"user","type":"address"},{"indexed":false,"internalType":"uint256","name":"amount","type":"uint256"}],"name":"RewardClaimed","type":"event"},{"anonymous":false,"inputs":[{"indexed":true,"internalType":"address","name":"user","type":"address"},{"indexed":false,"internalType":"uint256","name":"amount","type":"uint256"}],"name":"Staked","type":"event"},{"anonymous":false,"inputs":[{"indexed":true,"internalType":"address","name":"from","type":"address"},{"indexed":true,"internalType":"address","name":"to","type":"address"},{"indexed":false,"internalType":"uint256","name":"value","type":"uint256"}],"name":"Transfer","type":"event"},{"anonymous":false,"inputs":[{"indexed":true,"internalType":"address","name":"user","type":"address"},{"indexed":false,"internalType":"uint256","name":"amount","type":"uint256"}],"name":"Unstaked","type":"event"},{"inputs":[],"name":"BURN_FEE_PERCENT","outputs":[{"internalType":"uint256","name":"","type":"uint256"}],"stateMutability":"view","type":"function"},{"inputs":[],"name":"TREASURY_FEE_PERCENT","outputs":[{"internalType":"uint256","name":"","type":"uint256"}],"stateMutability":"view","type":"function"},{"inputs":[{"internalType":"address","name":"owner","type":"address"},{"internalType":"address","name":"spender","type":"address"}],"name":"allowance","outputs":[{"internalType":"uint256","name":"","type":"uint256"}],"stateMutability":"view","type":"function"},{"inputs":[{"internalType":"address","name":"spender","type":"address"},{"internalType":"uint256","name":"value","type":"uint256"}],"name":"approve","outputs":[{"internalType":"bool","name":"","type":"bool"}],"stateMutability":"nonpayable","type":"function"},{"inputs":[{"internalType":"address","name":"account","type":"address"}],"name":"balanceOf","outputs":[{"internalType":"uint256","name":"","type":"uint256"}],"stateMutability":"view","type":"function"},{"inputs":[],"name":"claimReward","outputs":[],"stateMutability":"nonpayable","type":"function"},{"inputs":[],"name":"decimals","outputs":[{"internalType":"uint8","name":"","type":"uint8"}],"stateMutability":"view","type":"function"},{"inputs":[],"name":"name","outputs":[{"internalType":"string","name":"","type":"string"}],"stateMutability":"view","type":"function"},{"inputs":[],"name":"owner","outputs":[{"internalType":"address","name":"","type":"address"}],"stateMutability":"view","type":"function"},{"inputs":[],"name":"renounceOwnership","outputs":[],"stateMutability":"nonpayable","type":"function"},{"inputs":[{"internalType":"address","name":"","type":"address"}],"name":"rewards","outputs":[{"internalType":"uint256","name":"","type":"uint256"}],"stateMutability":"view","type":"function"},{"inputs":[{"internalType":"address","name":"newTreasury","type":"address"}],"name":"setTreasuryAddress","outputs":[],"stateMutability":"nonpayable","type":"function"},{"inputs":[{"internalType":"uint256","name":"amount","type":"uint256"}],"name":"stake","outputs":[],"stateMutability":"nonpayable","type":"function"},{"inputs":[{"internalType":"address","name":"","type":"address"}],"name":"stakes","outputs":[{"internalType":"uint256","name":"amount","type":"uint256"},{"internalType":"uint256","name":"startTime","type":"uint256"},{"internalType":"bool","name":"active","type":"bool"}],"stateMutability":"view","type":"function"},{"inputs":[],"name":"symbol","outputs":[{"internalType":"string","name":"","type":"string"}],"stateMutability":"view","type":"function"},{"inputs":[],"name":"totalBurned","outputs":[{"internalType":"uint256","name":"","type":"uint256"}],"stateMutability":"view","type":"function"},{"inputs":[],"name":"totalSupply","outputs":[{"internalType":"uint256","name":"","type":"uint256"}],"stateMutability":"view","type":"function"},{"inputs":[{"internalType":"address","name":"to","type":"address"},{"internalType":"uint256","name":"value","type":"uint256"}],"name":"transfer","outputs":[{"internalType":"bool","name":"","type":"bool"}],"stateMutability":"nonpayable","type":"function"},{"inputs":[{"internalType":"address","name":"from","type":"address"},{"internalType":"address","name":"to","type":"address"},{"internalType":"uint256","name":"value","type":"uint256"}],"name":"transferFrom","outputs":[{"internalType":"bool","name":"","type":"bool"}],"stateMutability":"nonpayable","type":"function"},{"inputs":[{"internalType":"address","name":"newOwner","type":"address"}],"name":"transferOwnership","outputs":[],"stateMutability":"nonpayable","type":"function"},{"inputs":[],"name":"treasuryAddress","outputs":[{"internalType":"address","name":"","type":"address"}],"stateMutability":"view","type":"function"},{"inputs":[],"name":"unstake","outputs":[],"stateMutability":"nonpayable","type":"function"}],"evm":{"bytecode":{"linkReferences":{},"object":"608060405234801562000010575f80fd5b5060405162002eee38038062002eee833981810160405281019062000036919062000962565b33848481600390816200004a919062000c3d565b5080600490816200005c919062000c3d565b5050505f73ffffffffffffffffffffffffffffffffffffffff168173ffffffffffffffffffffffffffffffffffffffff1603620000d2575f6040517f1e4fbdf7000000000000000000000000000000000000000000000000000000008152600401620000c9919062000d32565b60405180910390fd5b620000e3816200019260201b60201c565b50600162000106620000fa6200025560201b60201c565b6200027e60201b60201c565b5f01819055506200014833620001216200028760201b60201c565b600a6200012f919062000ed6565b846200013c919062000f26565b6200028f60201b60201c565b8060075f6101000a81548173ffffffffffffffffffffffffffffffffffffffff021916908373ffffffffffffffffffffffffffffffffffffffff16021790555050505050620010af565b5f60055f9054906101000a900473ffffffffffffffffffffffffffffffffffffffff1690508160055f6101000a81548173ffffffffffffffffffffffffffffffffffffffff021916908373ffffffffffffffffffffffffffffffffffffffff1602179055508173ffffffffffffffffffffffffffffffffffffffff168173ffffffffffffffffffffffffffffffffffffffff167f8be0079c531659141344cd1fd0a4f28419497f9722a3daafe3b4186f6b6457e060405160405180910390a35050565b5f7f9b779b17422d0df92223018b32b4d1fa46e071723d6817e2486d003becc55f005f1b905090565b5f819050919050565b5f6012905090565b5f73ffffffffffffffffffffffffffffffffffffffff168273ffffffffffffffffffffffffffffffffffffffff160362000302575f6040517fec442f05000000000000000000000000000000000000000000000000000000008152600401620002f9919062000d32565b60405180910390fd5b620003155f83836200031960201b60201c565b5050565b5f73ffffffffffffffffffffffffffffffffffffffff168373ffffffffffffffffffffffffffffffffffffffff16141580156200038257505f73ffffffffffffffffffffffffffffffffffffffff168273ffffffffffffffffffffffffffffffffffffffff1614155b8015620003bb57503073ffffffffffffffffffffffffffffffffffffffff168373ffffffffffffffffffffffffffffffffffffffff1614155b8015620003f457503073ffffffffffffffffffffffffffffffffffffffff168273ffffffffffffffffffffffffffffffffffffffff1614155b1562000508575f60646002836200040c919062000f26565b62000418919062000f9d565b90505f60646001846200042c919062000f26565b62000438919062000f9d565b90505f821115620004aa5762000456855f846200052060201b60201c565b8160065f82825462000469919062000fd4565b925050819055507fd83c63197e8e676d80ab0122beba9a9d20f3828839e9a1d6fe81d242e9cd7e6e82604051620004a191906200101f565b60405180910390a15b5f811115620004e857620004e78560075f9054906101000a900473ffffffffffffffffffffffffffffffffffffffff16836200052060201b60201c565b5b808284620004f791906200103a565b6200050391906200103a565b925050505b6200051b8383836200052060201b60201c565b505050565b5f73ffffffffffffffffffffffffffffffffffffffff168373ffffffffffffffffffffffffffffffffffffffff160362000574578060025f82825462000567919062000fd4565b9250508190555062000645565b5f805f8573ffffffffffffffffffffffffffffffffffffffff1673ffffffffffffffffffffffffffffffffffffffff1681526020019081526020015f205490508181101562000600578381836040517fe450d38c000000000000000000000000000000000000000000000000000000008152600401620005f79392919062001074565b60405180910390fd5b8181035f808673ffffffffffffffffffffffffffffffffffffffff1673ffffffffffffffffffffffffffffffffffffffff1681526020019081526020015f2081905550505b5f73ffffffffffffffffffffffffffffffffffffffff168273ffffffffffffffffffffffffffffffffffffffff16036200068e578060025f8282540392505081905550620006d8565b805f808473ffffffffffffffffffffffffffffffffffffffff1673ffffffffffffffffffffffffffffffffffffffff1681526020019081526020015f205f82825401925050819055505b8173ffffffffffffffffffffffffffffffffffffffff168373ffffffffffffffffffffffffffffffffffffffff167fddf252ad1be2c89b69c2b068fc378daa952ba7f163c4a11628f55a4df523b3ef836040516200073791906200101f565b60405180910390a3505050565b5f604051905090565b5f80fd5b5f80fd5b5f80fd5b5f80fd5b5f601f19601f8301169050919050565b7f4e487b71000000000000000000000000000000000000000000000000000000005f52604160045260245ffd5b620007a5826200075d565b810181811067ffffffffffffffff82111715620007c757620007c66200076d565b5b80604052505050565b5f620007db62000744565b9050620007e982826200079a565b919050565b5f67ffffffffffffffff8211156200080b576200080a6200076d565b5b62000816826200075d565b9050602081019050919050565b5f5b838110156200084257808201518184015260208101905062000825565b5f8484015250505050565b5f620008636200085d84620007ee565b620007d0565b90508281526020810184848401111562000882576200088162000759565b5b6200088f84828562000823565b509392505050565b5f82601f830112620008ae57620008ad62000755565b5b8151620008c08482602086016200084d565b91505092915050565b5f819050919050565b620008dd81620008c9565b8114620008e8575f80fd5b50565b5f81519050620008fb81620008d2565b92915050565b5f73ffffffffffffffffffffffffffffffffffffffff82169050919050565b5f6200092c8262000901565b9050919050565b6200093e8162000920565b811462000949575f80fd5b50565b5f815190506200095c8162000933565b92915050565b5f805f80608085870312156200097d576200097c6200074d565b5b5f85015167ffffffffffffffff8111156200099d576200099c62000751565b5b620009ab8782880162000897565b945050602085015167ffffffffffffffff811115620009cf57620009ce62000751565b5b620009dd8782880162000897565b9350506040620009f087828801620008eb565b925050606062000a03878288016200094c565b91505092959194509250565b5f81519050919050565b7f4e487b71000000000000000000000000000000000000000000000000000000005f52602260045260245ffd5b5f600282049050600182168062000a5e57607f821691505b60208210810362000a745762000a7362000a19565b5b50919050565b5f819050815f5260205f209050919050565b5f6020601f8301049050919050565b5f82821b905092915050565b5f6008830262000ad87fffffffffffffffffffffffffffffffffffffffffffffffffffffffffffffffff8262000a9b565b62000ae4868362000a9b565b95508019841693508086168417925050509392505050565b5f819050919050565b5f62000b2562000b1f62000b1984620008c9565b62000afc565b620008c9565b9050919050565b5f819050919050565b62000b408362000b05565b62000b5862000b4f8262000b2c565b84845462000aa7565b825550505050565b5f90565b62000b6e62000b60565b62000b7b81848462000b35565b505050565b5b8181101562000ba25762000b965f8262000b64565b60018101905062000b81565b5050565b601f82111562000bf15762000bbb8162000a7a565b62000bc68462000a8c565b8101602085101562000bd6578190505b62000bee62000be58562000a8c565b83018262000b80565b50505b505050565b5f82821c905092915050565b5f62000c135f198460080262000bf6565b1980831691505092915050565b5f62000c2d838362000c02565b9150826002028217905092915050565b62000c488262000a0f565b67ffffffffffffffff81111562000c645762000c636200076d565b5b62000c70825462000a46565b62000c7d82828562000ba6565b5f60209050601f83116001811462000cb3575f841562000c9e578287015190505b62000caa858262000c20565b86555062000d19565b601f19841662000cc38662000a7a565b5f5b8281101562000cec5784890151825560018201915060208501945060208101905062000cc5565b8683101562000d0c578489015162000d08601f89168262000c02565b8355505b6001600288020188555050505b505050505050565b62000d2c8162000920565b82525050565b5f60208201905062000d475f83018462000d21565b92915050565b7f4e487b71000000000000000000000000000000000000000000000000000000005f52601160045260245ffd5b5f8160011c9050919050565b5f808291508390505b600185111562000dd75780860481111562000daf5762000dae62000d4d565b5b600185161562000dbf5780820291505b808102905062000dcf8562000d7a565b945062000d8f565b94509492505050565b5f8262000df1576001905062000ec3565b8162000e00575f905062000ec3565b816001811462000e19576002811462000e245762000e5a565b600191505062000ec3565b60ff84111562000e395762000e3862000d4d565b5b8360020a91508482111562000e535762000e5262000d4d565b5b5062000ec3565b5060208310610133831016604e8410600b841016171562000e945782820a90508381111562000e8e5762000e8d62000d4d565b5b62000ec3565b62000ea3848484600162000d86565b9250905081840481111562000ebd5762000ebc62000d4d565b5b81810290505b9392505050565b5f60ff82169050919050565b5f62000ee282620008c9565b915062000eef8362000eca565b925062000f1e7fffffffffffffffffffffffffffffffffffffffffffffffffffffffffffffffff848462000de0565b905092915050565b5f62000f3282620008c9565b915062000f3f83620008c9565b925082820262000f4f81620008c9565b9150828204841483151762000f695762000f6862000d4d565b5b5092915050565b7f4e487b71000000000000000000000000000000000000000000000000000000005f52601260045260245ffd5b5f62000fa982620008c9565b915062000fb683620008c9565b92508262000fc95762000fc862000f70565b5b828204905092915050565b5f62000fe082620008c9565b915062000fed83620008c9565b925082820190508082111562001008576200100762000d4d565b5b92915050565b6200101981620008c9565b82525050565b5f602082019050620010345f8301846200100e565b92915050565b5f6200104682620008c9565b91506200105383620008c9565b92508282039050818111156200106e576200106d62000d4d565b5b92915050565b5f606082019050620010895f83018662000d21565b6200109860208301856200100e565b620010a760408301846200100e565b949350505050565b611e3180620010bd5f395ff3fe608060405234801561000f575f80fd5b5060043610610140575f3560e01c80638da5cb5b116100b6578063c5f956af1161007a578063c5f956af14610352578063d89135cd14610370578063dd62ed3e1461038e578063e111703a146103be578063f2fde38b146103dc578063fad5c5b3146103f857610140565b80638da5cb5b146102c057806395d89b41146102de578063a694fc3a146102fc578063a9059cbb14610318578063b88a802f1461034857610140565b806323b872dd1161010857806323b872dd146102125780632def662014610242578063313ce5671461024c5780636605bfda1461026a57806370a0823114610286578063715018a6146102b657610140565b806306fdde03146101445780630700037d14610162578063095ea7b31461019257806316934fc4146101c257806318160ddd146101f4575b5f80fd5b61014c610416565b60405161015991906117d9565b60405180910390f35b61017c60048036038101906101779190611857565b6104a6565b604051610189919061189a565b60405180910390f35b6101ac60048036038101906101a791906118dd565b6104bb565b6040516101b99190611935565b60405180910390f35b6101dc60048036038101906101d79190611857565b6104dd565b6040516101eb9392919061194e565b60405180910390f35b6101fc61050f565b604051610209919061189a565b60405180910390f35b61022c60048036038101906102279190611983565b610518565b6040516102399190611935565b60405180910390f35b61024a610546565b005b61025461078b565b60405161026191906119ee565b60405180910390f35b610284600480360381019061027f9190611857565b610793565b005b6102a0600480360381019061029b9190611857565b6107de565b6040516102ad919061189a565b60405180910390f35b6102be610823565b005b6102c8610836565b6040516102d59190611a16565b60405180910390f35b6102e661085e565b6040516102f391906117d9565b60405180910390f35b61031660048036038101906103119190611a2f565b6108ee565b005b610332600480360381019061032d91906118dd565b610ad1565b60405161033f9190611935565b60405180910390f35b610350610af3565b005b61035a610c23565b6040516103679190611a16565b60405180910390f35b610378610c48565b604051610385919061189a565b60405180910390f35b6103a860048036038101906103a39190611a5a565b610c4e565b6040516103b5919061189a565b60405180910390f35b6103c6610cd0565b6040516103d3919061189a565b60405180910390f35b6103f660048036038101906103f19190611857565b610cd5565b005b610400610d59565b60405161040d919061189a565b60405180910390f35b60606003805461042590611ac5565b80601f016020809104026020016040519081016040528092919081815260200182805461045190611ac5565b801561049c5780601f106104735761010080835404028352916020019161049c565b820191905f5260205f20905b81548152906001019060200180831161047f57829003601f168201915b5050505050905090565b6009602052805f5260405f205f915090505481565b5f806104c5610d5e565b90506104d2818585610d65565b600191505092915050565b6008602052805f5260405f205f91509050805f015490806001015490806002015f9054906101000a900460ff16905083565b5f600254905090565b5f80610522610d5e565b905061052f858285610d77565b61053a858585610e0a565b60019150509392505050565b61054e610efa565b5f60085f3373ffffffffffffffffffffffffffffffffffffffff1673ffffffffffffffffffffffffffffffffffffffff1681526020019081526020015f206040518060600160405290815f820154815260200160018201548152602001600282015f9054906101000a900460ff1615151515815250509050806040015161060a576040517f08c379a000000000000000000000000000000000000000000000000000000000815260040161060190611b3f565b60405180910390fd5b5f81602001514261061b9190611b8a565b90505f6301e1338082845f01516106329190611bbd565b61063c9190611c2b565b90508060095f3373ffffffffffffffffffffffffffffffffffffffff1673ffffffffffffffffffffffffffffffffffffffff1681526020019081526020015f205f82825461068a9190611c5b565b9250508190555060405180606001604052805f81526020015f81526020015f151581525060085f3373ffffffffffffffffffffffffffffffffffffffff1673ffffffffffffffffffffffffffffffffffffffff1681526020019081526020015f205f820151815f0155602082015181600101556040820151816002015f6101000a81548160ff02191690831515021790555090505061072d3033855f0151610e0a565b3373ffffffffffffffffffffffffffffffffffffffff167f0f5bb82176feb1b5e747e28471aa92156a04d9f3ab9f45f28e2d704232b93f75845f0151604051610776919061189a565b60405180910390a2505050610789610f1c565b565b5f6012905090565b61079b610f36565b8060075f6101000a81548173ffffffffffffffffffffffffffffffffffffffff021916908373ffffffffffffffffffffffffffffffffffffffff16021790555050565b5f805f8373ffffffffffffffffffffffffffffffffffffffff1673ffffffffffffffffffffffffffffffffffffffff1681526020019081526020015f20549050919050565b61082b610f36565b6108345f610fbd565b565b5f60055f9054906101000a900473ffffffffffffffffffffffffffffffffffffffff16905090565b60606004805461086d90611ac5565b80601f016020809104026020016040519081016040528092919081815260200182805461089990611ac5565b80156108e45780601f106108bb576101008083540402835291602001916108e4565b820191905f5260205f20905b8154815290600101906020018083116108c757829003601f168201915b5050505050905090565b6108f6610efa565b5f8111610938576040517f08c379a000000000000000000000000000000000000000000000000000000000815260040161092f90611cd8565b60405180910390fd5b80610942336107de565b1015610983576040517f08c379a000000000000000000000000000000000000000000000000000000000815260040161097a90611d40565b60405180910390fd5b60085f3373ffffffffffffffffffffffffffffffffffffffff1673ffffffffffffffffffffffffffffffffffffffff1681526020019081526020015f206002015f9054906101000a900460ff16156109de576109dd610546565b5b6109e9333083610e0a565b60405180606001604052808281526020014281526020016001151581525060085f3373ffffffffffffffffffffffffffffffffffffffff1673ffffffffffffffffffffffffffffffffffffffff1681526020019081526020015f205f820151815f0155602082015181600101556040820151816002015f6101000a81548160ff0219169083151502179055509050503373ffffffffffffffffffffffffffffffffffffffff167f9e71bc8eea02a63969f509818f2dafb9254532904319f9dbda79b67bd34a5f3d82604051610abe919061189a565b60405180910390a2610ace610f1c565b50565b5f80610adb610d5e565b9050610ae8818585610e0a565b600191505092915050565b610afb610efa565b5f60095f3373ffffffffffffffffffffffffffffffffffffffff1673ffffffffffffffffffffffffffffffffffffffff1681526020019081526020015f205490505f8111610b7e576040517f08c379a0000000000000000000000000000000000000000000000000000000008152600401610b7590611da8565b60405180910390fd5b5f60095f3373ffffffffffffffffffffffffffffffffffffffff1673ffffffffffffffffffffffffffffffffffffffff1681526020019081526020015f2081905550610bca3382611080565b3373ffffffffffffffffffffffffffffffffffffffff167f106f923f993c2149d49b4255ff723acafa1f2d94393f561d3eda32ae348f724182604051610c10919061189a565b60405180910390a250610c21610f1c565b565b60075f9054906101000a900473ffffffffffffffffffffffffffffffffffffffff1681565b60065481565b5f60015f8473ffffffffffffffffffffffffffffffffffffffff1673ffffffffffffffffffffffffffffffffffffffff1681526020019081526020015f205f8373ffffffffffffffffffffffffffffffffffffffff1673ffffffffffffffffffffffffffffffffffffffff1681526020019081526020015f2054905092915050565b600181565b610cdd610f36565b5f73ffffffffffffffffffffffffffffffffffffffff168173ffffffffffffffffffffffffffffffffffffffff1603610d4d575f6040517f1e4fbdf7000000000000000000000000000000000000000000000000000000008152600401610d449190611a16565b60405180910390fd5b610d5681610fbd565b50565b600281565b5f33905090565b610d7283838360016110ff565b505050565b5f610d828484610c4e565b90507fffffffffffffffffffffffffffffffffffffffffffffffffffffffffffffffff811015610e045781811015610df5578281836040517ffb8f41b2000000000000000000000000000000000000000000000000000000008152600401610dec93929190611dc6565b60405180910390fd5b610e0384848484035f6110ff565b5b50505050565b5f73ffffffffffffffffffffffffffffffffffffffff168373ffffffffffffffffffffffffffffffffffffffff1603610e7a575f6040517f96c6fd1e000000000000000000000000000000000000000000000000000000008152600401610e719190611a16565b60405180910390fd5b5f73ffffffffffffffffffffffffffffffffffffffff168273ffffffffffffffffffffffffffffffffffffffff1603610eea575f6040517fec442f05000000000000000000000000000000000000000000000000000000008152600401610ee19190611a16565b60405180910390fd5b610ef58383836112ce565b505050565b610f026114a7565b6002610f14610f0f6114e8565b611511565b5f0181905550565b6001610f2e610f296114e8565b611511565b5f0181905550565b610f3e610d5e565b73ffffffffffffffffffffffffffffffffffffffff16610f5c610836565b73ffffffffffffffffffffffffffffffffffffffff1614610fbb57610f7f610d5e565b6040517f118cdaa7000000000000000000000000000000000000000000000000000000008152600401610fb29190611a16565b60405180910390fd5b565b5f60055f9054906101000a900473ffffffffffffffffffffffffffffffffffffffff1690508160055f6101000a81548173ffffffffffffffffffffffffffffffffffffffff021916908373ffffffffffffffffffffffffffffffffffffffff1602179055508173ffffffffffffffffffffffffffffffffffffffff168173ffffffffffffffffffffffffffffffffffffffff167f8be0079c531659141344cd1fd0a4f28419497f9722a3daafe3b4186f6b6457e060405160405180910390a35050565b5f73ffffffffffffffffffffffffffffffffffffffff168273ffffffffffffffffffffffffffffffffffffffff16036110f0575f6040517fec442f050000000000000000000000000000000000000000000000000000000081526004016110e79190611a16565b60405180910390fd5b6110fb5f83836112ce565b5050565b5f73ffffffffffffffffffffffffffffffffffffffff168473ffffffffffffffffffffffffffffffffffffffff160361116f575f6040517fe602df050000000000000000000000000000000000000000000000000000000081526004016111669190611a16565b60405180910390fd5b5f73ffffffffffffffffffffffffffffffffffffffff168373ffffffffffffffffffffffffffffffffffffffff16036111df575f6040517f94280d620000000000000000000000000000000000000000000000000000000081526004016111d69190611a16565b60405180910390fd5b8160015f8673ffffffffffffffffffffffffffffffffffffffff1673ffffffffffffffffffffffffffffffffffffffff1681526020019081526020015f205f8573ffffffffffffffffffffffffffffffffffffffff1673ffffffffffffffffffffffffffffffffffffffff1681526020019081526020015f208190555080156112c8578273ffffffffffffffffffffffffffffffffffffffff168473ffffffffffffffffffffffffffffffffffffffff167f8c5be1e5ebec7d5bd14f71427d1e84f3dd0314c0f7b2291e5b200ac8c7c3b925846040516112bf919061189a565b60405180910390a35b50505050565b5f73ffffffffffffffffffffffffffffffffffffffff168373ffffffffffffffffffffffffffffffffffffffff161415801561133657505f73ffffffffffffffffffffffffffffffffffffffff168273ffffffffffffffffffffffffffffffffffffffff1614155b801561136e57503073ffffffffffffffffffffffffffffffffffffffff168373ffffffffffffffffffffffffffffffffffffffff1614155b80156113a657503073ffffffffffffffffffffffffffffffffffffffff168273ffffffffffffffffffffffffffffffffffffffff1614155b15611497575f60646002836113bb9190611bbd565b6113c59190611c2b565b90505f60646001846113d79190611bbd565b6113e19190611c2b565b90505f821115611446576113f6855f8461151a565b8160065f8282546114079190611c5b565b925050819055507fd83c63197e8e676d80ab0122beba9a9d20f3828839e9a1d6fe81d242e9cd7e6e8260405161143d919061189a565b60405180910390a15b5f81111561147b5761147a8560075f9054906101000a900473ffffffffffffffffffffffffffffffffffffffff168361151a565b5b8082846114889190611b8a565b6114929190611b8a565b925050505b6114a283838361151a565b505050565b6114af611733565b156114e6576040517f3ee5aeb500000000000000000000000000000000000000000000000000000000815260040160405180910390fd5b565b5f7f9b779b17422d0df92223018b32b4d1fa46e071723d6817e2486d003becc55f005f1b905090565b5f819050919050565b5f73ffffffffffffffffffffffffffffffffffffffff168373ffffffffffffffffffffffffffffffffffffffff160361156a578060025f82825461155e9190611c5b565b92505081905550611638565b5f805f8573ffffffffffffffffffffffffffffffffffffffff1673ffffffffffffffffffffffffffffffffffffffff1681526020019081526020015f20549050818110156115f3578381836040517fe450d38c0000000000000000000000000000000000000000000000000000000081526004016115ea93929190611dc6565b60405180910390fd5b8181035f808673ffffffffffffffffffffffffffffffffffffffff1673ffffffffffffffffffffffffffffffffffffffff1681526020019081526020015f2081905550505b5f73ffffffffffffffffffffffffffffffffffffffff168273ffffffffffffffffffffffffffffffffffffffff160361167f578060025f82825403925050819055506116c9565b805f808473ffffffffffffffffffffffffffffffffffffffff1673ffffffffffffffffffffffffffffffffffffffff1681526020019081526020015f205f82825401925050819055505b8173ffffffffffffffffffffffffffffffffffffffff168373ffffffffffffffffffffffffffffffffffffffff167fddf252ad1be2c89b69c2b068fc378daa952ba7f163c4a11628f55a4df523b3ef83604051611726919061189a565b60405180910390a3505050565b5f60026117466117416114e8565b611511565b5f015414905090565b5f81519050919050565b5f82825260208201905092915050565b5f5b8381101561178657808201518184015260208101905061176b565b5f8484015250505050565b5f601f19601f8301169050919050565b5f6117ab8261174f565b6117b58185611759565b93506117c5818560208601611769565b6117ce81611791565b840191505092915050565b5f6020820190508181035f8301526117f181846117a1565b905092915050565b5f80fd5b5f73ffffffffffffffffffffffffffffffffffffffff82169050919050565b5f611826826117fd565b9050919050565b6118368161181c565b8114611840575f80fd5b50565b5f813590506118518161182d565b92915050565b5f6020828403121561186c5761186b6117f9565b5b5f61187984828501611843565b91505092915050565b5f819050919050565b61189481611882565b82525050565b5f6020820190506118ad5f83018461188b565b92915050565b6118bc81611882565b81146118c6575f80fd5b50565b5f813590506118d7816118b3565b92915050565b5f80604083850312156118f3576118f26117f9565b5b5f61190085828601611843565b9250506020611911858286016118c9565b9150509250929050565b5f8115159050919050565b61192f8161191b565b82525050565b5f6020820190506119485f830184611926565b92915050565b5f6060820190506119615f83018661188b565b61196e602083018561188b565b61197b6040830184611926565b949350505050565b5f805f6060848603121561199a576119996117f9565b5b5f6119a786828701611843565b93505060206119b886828701611843565b92505060406119c9868287016118c9565b9150509250925092565b5f60ff82169050919050565b6119e8816119d3565b82525050565b5f602082019050611a015f8301846119df565b92915050565b611a108161181c565b82525050565b5f602082019050611a295f830184611a07565b92915050565b5f60208284031215611a4457611a436117f9565b5b5f611a51848285016118c9565b91505092915050565b5f8060408385031215611a7057611a6f6117f9565b5b5f611a7d85828601611843565b9250506020611a8e85828601611843565b9150509250929050565b7f4e487b71000000000000000000000000000000000000000000000000000000005f52602260045260245ffd5b5f6002820490506001821680611adc57607f821691505b602082108103611aef57611aee611a98565b5b50919050565b7f4e6f20616374697665207374616b6500000000000000000000000000000000005f82015250565b5f611b29600f83611759565b9150611b3482611af5565b602082019050919050565b5f6020820190508181035f830152611b5681611b1d565b9050919050565b7f4e487b71000000000000000000000000000000000000000000000000000000005f52601160045260245ffd5b5f611b9482611882565b9150611b9f83611882565b9250828203905081811115611bb757611bb6611b5d565b5b92915050565b5f611bc782611882565b9150611bd283611882565b9250828202611be081611882565b91508282048414831517611bf757611bf6611b5d565b5b5092915050565b7f4e487b71000000000000000000000000000000000000000000000000000000005f52601260045260245ffd5b5f611c3582611882565b9150611c4083611882565b925082611c5057611c4f611bfe565b5b828204905092915050565b5f611c6582611882565b9150611c7083611882565b9250828201905080821115611c8857611c87611b5d565b5b92915050565b7f4d757374207374616b65203e20300000000000000000000000000000000000005f82015250565b5f611cc2600e83611759565b9150611ccd82611c8e565b602082019050919050565b5f6020820190508181035f830152611cef81611cb6565b9050919050565b7f496e73756666696369656e742062616c616e63650000000000000000000000005f82015250565b5f611d2a601483611759565b9150611d3582611cf6565b602082019050919050565b5f6020820190508181035f830152611d5781611d1e565b9050919050565b7f4e6f2072657761726473000000000000000000000000000000000000000000005f82015250565b5f611d92600a83611759565b9150611d9d82611d5e565b602082019050919050565b5f6020820190508181035f830152611dbf81611d86565b9050919050565b5f606082019050611dd95f830186611a07565b611de6602083018561188b565b611df3604083018461188b565b94935050505056fea2646970667358221220e53afaf9c4483927fecf519ed24c7ff0de4b72f66d558d2cb79047bfd2d94f1a64736f6c63430008140033","opcodes":"PUSH1 0x80 PUSH1 0x40 MSTORE CALLVALUE DUP1 ISZERO PUSH3 0x10 JUMPI PUSH0 DUP1 REVERT JUMPDEST POP PUSH1 0x40 MLOAD PUSH3 0x2EEE CODESIZE SUB DUP1 PUSH3 0x2EEE DUP4 CODECOPY DUP2 DUP2 ADD PUSH1 0x40 MSTORE DUP2 ADD SWAP1 PUSH3 0x36 SWAP2 SWAP1 PUSH3 0x962 JUMP JUMPDEST CALLER DUP5 DUP5 DUP2 PUSH1 0x3 SWAP1 DUP2 PUSH3 0x4A SWAP2 SWAP1 PUSH3 0xC3D JUMP JUMPDEST POP DUP1 PUSH1 0x4 SWAP1 DUP2 PUSH3 0x5C SWAP2 SWAP1 PUSH3 0xC3D JUMP JUMPDEST POP POP POP PUSH0 PUSH20 REDACTED_SECRET AND DUP2 PUSH20 REDACTED_SECRET AND SUB PUSH3 0xD2 JUMPI PUSH0 PUSH1 0x40 MLOAD PUSH32 REDACTED_SECRET000000000000000000000000 DUP2 MSTORE PUSH1 0x4 ADD PUSH3 0xC9 SWAP2 SWAP1 PUSH3 0xD32 JUMP JUMPDEST PUSH1 0x40 MLOAD DUP1 SWAP2 SUB SWAP1 REVERT JUMPDEST PUSH3 0xE3 DUP2 PUSH3 0x192 PUSH1 0x20 SHL PUSH1 0x20 SHR JUMP JUMPDEST POP PUSH1 0x1 PUSH3 0x106 PUSH3 0xFA PUSH3 0x255 PUSH1 0x20 SHL PUSH1 0x20 SHR JUMP JUMPDEST PUSH3 0x27E PUSH1 0x20 SHL PUSH1 0x20 SHR JUMP JUMPDEST PUSH0 ADD DUP2 SWAP1 SSTORE POP PUSH3 0x148 CALLER PUSH3 0x121 PUSH3 0x287 PUSH1 0x20 SHL PUSH1 0x20 SHR JUMP JUMPDEST PUSH1 0xA PUSH3 0x12F SWAP2 SWAP1 PUSH3 0xED6 JUMP JUMPDEST DUP5 PUSH3 0x13C SWAP2 SWAP1 PUSH3 0xF26 JUMP JUMPDEST PUSH3 0x28F PUSH1 0x20 SHL PUSH1 0x20 SHR JUMP JUMPDEST DUP1 PUSH1 0x7 PUSH0 PUSH2 0x100 EXP DUP2 SLOAD DUP2 PUSH20 REDACTED_SECRET MUL NOT AND SWAP1 DUP4 PUSH20 REDACTED_SECRET AND MUL OR SWAP1 SSTORE POP POP POP POP POP PUSH3 0x10AF JUMP JUMPDEST PUSH0 PUSH1 0x5 PUSH0 SWAP1 SLOAD SWAP1 PUSH2 0x100 EXP SWAP1 DIV PUSH20 REDACTED_SECRET AND SWAP1 POP DUP2 PUSH1 0x5 PUSH0 PUSH2 0x100 EXP DUP2 SLOAD DUP2 PUSH20 REDACTED_SECRET MUL NOT AND SWAP1 DUP4 PUSH20 REDACTED_SECRET AND MUL OR SWAP1 SSTORE POP DUP2 PUSH20 REDACTED_SECRET AND DUP2 PUSH20 REDACTED_SECRET AND PUSH32 REDACTED_SECRET22A3DAAFE3B4186F6B6457E0 PUSH1 0x40 MLOAD PUSH1 0x40 MLOAD DUP1 SWAP2 SUB SWAP1 LOG3 POP POP JUMP JUMPDEST PUSH0 PUSH32 REDACTED_SECRET3D6817E2486D003BECC55F00 PUSH0 SHL SWAP1 POP SWAP1 JUMP JUMPDEST PUSH0 DUP2 SWAP1 POP SWAP2 SWAP1 POP JUMP JUMPDEST PUSH0 PUSH1 0x12 SWAP1 POP SWAP1 JUMP JUMPDEST PUSH0 PUSH20 REDACTED_SECRET AND DUP3 PUSH20 REDACTED_SECRET AND SUB PUSH3 0x302 JUMPI PUSH0 PUSH1 0x40 MLOAD PUSH32 REDACTED_SECRET000000000000000000000000 DUP2 MSTORE PUSH1 0x4 ADD PUSH3 0x2F9 SWAP2 SWAP1 PUSH3 0xD32 JUMP JUMPDEST PUSH1 0x40 MLOAD DUP1 SWAP2 SUB SWAP1 REVERT JUMPDEST PUSH3 0x315 PUSH0 DUP4 DUP4 PUSH3 0x319 PUSH1 0x20 SHL PUSH1 0x20 SHR JUMP JUMPDEST POP POP JUMP JUMPDEST PUSH0 PUSH20 REDACTED_SECRET AND DUP4 PUSH20 REDACTED_SECRET AND EQ ISZERO DUP1 ISZERO PUSH3 0x382 JUMPI POP PUSH0 PUSH20 REDACTED_SECRET AND DUP3 PUSH20 REDACTED_SECRET AND EQ ISZERO JUMPDEST DUP1 ISZERO PUSH3 0x3BB JUMPI POP ADDRESS PUSH20 REDACTED_SECRET AND DUP4 PUSH20 REDACTED_SECRET AND EQ ISZERO JUMPDEST DUP1 ISZERO PUSH3 0x3F4 JUMPI POP ADDRESS PUSH20 REDACTED_SECRET AND DUP3 PUSH20 REDACTED_SECRET AND EQ ISZERO JUMPDEST ISZERO PUSH3 0x508 JUMPI PUSH0 PUSH1 0x64 PUSH1 0x2 DUP4 PUSH3 0x40C SWAP2 SWAP1 PUSH3 0xF26 JUMP JUMPDEST PUSH3 0x418 SWAP2 SWAP1 PUSH3 0xF9D JUMP JUMPDEST SWAP1 POP PUSH0 PUSH1 0x64 PUSH1 0x1 DUP5 PUSH3 0x42C SWAP2 SWAP1 PUSH3 0xF26 JUMP JUMPDEST PUSH3 0x438 SWAP2 SWAP1 PUSH3 0xF9D JUMP JUMPDEST SWAP1 POP PUSH0 DUP3 GT ISZERO PUSH3 0x4AA JUMPI PUSH3 0x456 DUP6 PUSH0 DUP5 PUSH3 0x520 PUSH1 0x20 SHL PUSH1 0x20 SHR JUMP JUMPDEST DUP2 PUSH1 0x6 PUSH0 DUP3 DUP3 SLOAD PUSH3 0x469 SWAP2 SWAP1 PUSH3 0xFD4 JUMP JUMPDEST SWAP3 POP POP DUP2 SWAP1 SSTORE POP PUSH32 REDACTED_SECRET39E9A1D6FE81D242E9CD7E6E DUP3 PUSH1 0x40 MLOAD PUSH3 0x4A1 SWAP2 SWAP1 PUSH3 0x101F JUMP JUMPDEST PUSH1 0x40 MLOAD DUP1 SWAP2 SUB SWAP1 LOG1 JUMPDEST PUSH0 DUP2 GT ISZERO PUSH3 0x4E8 JUMPI PUSH3 0x4E7 DUP6 PUSH1 0x7 PUSH0 SWAP1 SLOAD SWAP1 PUSH2 0x100 EXP SWAP1 DIV PUSH20 REDACTED_SECRET AND DUP4 PUSH3 0x520 PUSH1 0x20 SHL PUSH1 0x20 SHR JUMP JUMPDEST JUMPDEST DUP1 DUP3 DUP5 PUSH3 0x4F7 SWAP2 SWAP1 PUSH3 0x103A JUMP JUMPDEST PUSH3 0x503 SWAP2 SWAP1 PUSH3 0x103A JUMP JUMPDEST SWAP3 POP POP POP JUMPDEST PUSH3 0x51B DUP4 DUP4 DUP4 PUSH3 0x520 PUSH1 0x20 SHL PUSH1 0x20 SHR JUMP JUMPDEST POP POP POP JUMP JUMPDEST PUSH0 PUSH20 REDACTED_SECRET AND DUP4 PUSH20 REDACTED_SECRET AND SUB PUSH3 0x574 JUMPI DUP1 PUSH1 0x2 PUSH0 DUP3 DUP3 SLOAD PUSH3 0x567 SWAP2 SWAP1 PUSH3 0xFD4 JUMP JUMPDEST SWAP3 POP POP DUP2 SWAP1 SSTORE POP PUSH3 0x645 JUMP JUMPDEST PUSH0 DUP1 PUSH0 DUP6 PUSH20 REDACTED_SECRET AND PUSH20 REDACTED_SECRET AND DUP2 MSTORE PUSH1 0x20 ADD SWAP1 DUP2 MSTORE PUSH1 0x20 ADD PUSH0 KECCAK256 SLOAD SWAP1 POP DUP2 DUP2 LT ISZERO PUSH3 0x600 JUMPI DUP4 DUP2 DUP4 PUSH1 0x40 MLOAD PUSH32 REDACTED_SECRET000000000000000000000000 DUP2 MSTORE PUSH1 0x4 ADD PUSH3 0x5F7 SWAP4 SWAP3 SWAP2 SWAP1 PUSH3 0x1074 JUMP JUMPDEST PUSH1 0x40 MLOAD DUP1 SWAP2 SUB SWAP1 REVERT JUMPDEST DUP2 DUP2 SUB PUSH0 DUP1 DUP7 PUSH20 REDACTED_SECRET AND PUSH20 REDACTED_SECRET AND DUP2 MSTORE PUSH1 0x20 ADD SWAP1 DUP2 MSTORE PUSH1 0x20 ADD PUSH0 KECCAK256 DUP2 SWAP1 SSTORE POP POP JUMPDEST PUSH0 PUSH20 REDACTED_SECRET AND DUP3 PUSH20 REDACTED_SECRET AND SUB PUSH3 0x68E JUMPI DUP1 PUSH1 0x2 PUSH0 DUP3 DUP3 SLOAD SUB SWAP3 POP POP DUP2 SWAP1 SSTORE POP PUSH3 0x6D8 JUMP JUMPDEST DUP1 PUSH0 DUP1 DUP5 PUSH20 REDACTED_SECRET AND PUSH20 REDACTED_SECRET AND DUP2 MSTORE PUSH1 0x20 ADD SWAP1 DUP2 MSTORE PUSH1 0x20 ADD PUSH0 KECCAK256 PUSH0 DUP3 DUP3 SLOAD ADD SWAP3 POP POP DUP2 SWAP1 SSTORE POP JUMPDEST DUP2 PUSH20 REDACTED_SECRET AND DUP4 PUSH20 REDACTED_SECRET AND PUSH32 REDACTED_SECRET63C4A11628F55A4DF523B3EF DUP4 PUSH1 0x40 MLOAD PUSH3 0x737 SWAP2 SWAP1 PUSH3 0x101F JUMP JUMPDEST PUSH1 0x40 MLOAD DUP1 SWAP2 SUB SWAP1 LOG3 POP POP POP JUMP JUMPDEST PUSH0 PUSH1 0x40 MLOAD SWAP1 POP SWAP1 JUMP JUMPDEST PUSH0 DUP1 REVERT JUMPDEST PUSH0 DUP1 REVERT JUMPDEST PUSH0 DUP1 REVERT JUMPDEST PUSH0 DUP1 REVERT JUMPDEST PUSH0 PUSH1 0x1F NOT PUSH1 0x1F DUP4 ADD AND SWAP1 POP SWAP2 SWAP1 POP JUMP JUMPDEST PUSH32 REDACTED_SECRET000000000000000000000000 PUSH0 MSTORE PUSH1 0x41 PUSH1 0x4 MSTORE PUSH1 0x24 PUSH0 REVERT JUMPDEST PUSH3 0x7A5 DUP3 PUSH3 0x75D JUMP JUMPDEST DUP2 ADD DUP2 DUP2 LT PUSH8 0xFFFFFFFFFFFFFFFF DUP3 GT OR ISZERO PUSH3 0x7C7 JUMPI PUSH3 0x7C6 PUSH3 0x76D JUMP JUMPDEST JUMPDEST DUP1 PUSH1 0x40 MSTORE POP POP POP JUMP JUMPDEST PUSH0 PUSH3 0x7DB PUSH3 0x744 JUMP JUMPDEST SWAP1 POP PUSH3 0x7E9 DUP3 DUP3 PUSH3 0x79A JUMP JUMPDEST SWAP2 SWAP1 POP JUMP JUMPDEST PUSH0 PUSH8 0xFFFFFFFFFFFFFFFF DUP3 GT ISZERO PUSH3 0x80B JUMPI PUSH3 0x80A PUSH3 0x76D JUMP JUMPDEST JUMPDEST PUSH3 0x816 DUP3 PUSH3 0x75D JUMP JUMPDEST SWAP1 POP PUSH1 0x20 DUP2 ADD SWAP1 POP SWAP2 SWAP1 POP JUMP JUMPDEST PUSH0 JUMPDEST DUP4 DUP2 LT ISZERO PUSH3 0x842 JUMPI DUP1 DUP3 ADD MLOAD DUP2 DUP5 ADD MSTORE PUSH1 0x20 DUP2 ADD SWAP1 POP PUSH3 0x825 JUMP JUMPDEST PUSH0 DUP5 DUP5 ADD MSTORE POP POP POP POP JUMP JUMPDEST PUSH0 PUSH3 0x863 PUSH3 0x85D DUP5 PUSH3 0x7EE JUMP JUMPDEST PUSH3 0x7D0 JUMP JUMPDEST SWAP1 POP DUP3 DUP2 MSTORE PUSH1 0x20 DUP2 ADD DUP5 DUP5 DUP5 ADD GT ISZERO PUSH3 0x882 JUMPI PUSH3 0x881 PUSH3 0x759 JUMP JUMPDEST JUMPDEST PUSH3 0x88F DUP5 DUP3 DUP6 PUSH3 0x823 JUMP JUMPDEST POP SWAP4 SWAP3 POP POP POP JUMP JUMPDEST PUSH0 DUP3 PUSH1 0x1F DUP4 ADD SLT PUSH3 0x8AE JUMPI PUSH3 0x8AD PUSH3 0x755 JUMP JUMPDEST JUMPDEST DUP2 MLOAD PUSH3 0x8C0 DUP5 DUP3 PUSH1 0x20 DUP7 ADD PUSH3 0x84D JUMP JUMPDEST SWAP2 POP POP SWAP3 SWAP2 POP POP JUMP JUMPDEST PUSH0 DUP2 SWAP1 POP SWAP2 SWAP1 POP JUMP JUMPDEST PUSH3 0x8DD DUP2 PUSH3 0x8C9 JUMP JUMPDEST DUP2 EQ PUSH3 0x8E8 JUMPI PUSH0 DUP1 REVERT JUMPDEST POP JUMP JUMPDEST PUSH0 DUP2 MLOAD SWAP1 POP PUSH3 0x8FB DUP2 PUSH3 0x8D2 JUMP JUMPDEST SWAP3 SWAP2 POP POP JUMP JUMPDEST PUSH0 PUSH20 REDACTED_SECRET DUP3 AND SWAP1 POP SWAP2 SWAP1 POP JUMP JUMPDEST PUSH0 PUSH3 0x92C DUP3 PUSH3 0x901 JUMP JUMPDEST SWAP1 POP SWAP2 SWAP1 POP JUMP JUMPDEST PUSH3 0x93E DUP2 PUSH3 0x920 JUMP JUMPDEST DUP2 EQ PUSH3 0x949 JUMPI PUSH0 DUP1 REVERT JUMPDEST POP JUMP JUMPDEST PUSH0 DUP2 MLOAD SWAP1 POP PUSH3 0x95C DUP2 PUSH3 0x933 JUMP JUMPDEST SWAP3 SWAP2 POP POP JUMP JUMPDEST PUSH0 DUP1 PUSH0 DUP1 PUSH1 0x80 DUP6 DUP8 SUB SLT ISZERO PUSH3 0x97D JUMPI PUSH3 0x97C PUSH3 0x74D JUMP JUMPDEST JUMPDEST PUSH0 DUP6 ADD MLOAD PUSH8 0xFFFFFFFFFFFFFFFF DUP2 GT ISZERO PUSH3 0x99D JUMPI PUSH3 0x99C PUSH3 0x751 JUMP JUMPDEST JUMPDEST PUSH3 0x9AB DUP8 DUP3 DUP9 ADD PUSH3 0x897 JUMP JUMPDEST SWAP5 POP POP PUSH1 0x20 DUP6 ADD MLOAD PUSH8 0xFFFFFFFFFFFFFFFF DUP2 GT ISZERO PUSH3 0x9CF JUMPI PUSH3 0x9CE PUSH3 0x751 JUMP JUMPDEST JUMPDEST PUSH3 0x9DD DUP8 DUP3 DUP9 ADD PUSH3 0x897 JUMP JUMPDEST SWAP4 POP POP PUSH1 0x40 PUSH3 0x9F0 DUP8 DUP3 DUP9 ADD PUSH3 0x8EB JUMP JUMPDEST SWAP3 POP POP PUSH1 0x60 PUSH3 0xA03 DUP8 DUP3 DUP9 ADD PUSH3 0x94C JUMP JUMPDEST SWAP2 POP POP SWAP3 SWAP6 SWAP2 SWAP5 POP SWAP3 POP JUMP JUMPDEST PUSH0 DUP2 MLOAD SWAP1 POP SWAP2 SWAP1 POP JUMP JUMPDEST PUSH32 REDACTED_SECRET000000000000000000000000 PUSH0 MSTORE PUSH1 0x22 PUSH1 0x4 MSTORE PUSH1 0x24 PUSH0 REVERT JUMPDEST PUSH0 PUSH1 0x2 DUP3 DIV SWAP1 POP PUSH1 0x1 DUP3 AND DUP1 PUSH3 0xA5E JUMPI PUSH1 0x7F DUP3 AND SWAP2 POP JUMPDEST PUSH1 0x20 DUP3 LT DUP2 SUB PUSH3 0xA74 JUMPI PUSH3 0xA73 PUSH3 0xA19 JUMP JUMPDEST JUMPDEST POP SWAP2 SWAP1 POP JUMP JUMPDEST PUSH0 DUP2 SWAP1 POP DUP2 PUSH0 MSTORE PUSH1 0x20 PUSH0 KECCAK256 SWAP1 POP SWAP2 SWAP1 POP JUMP JUMPDEST PUSH0 PUSH1 0x20 PUSH1 0x1F DUP4 ADD DIV SWAP1 POP SWAP2 SWAP1 POP JUMP JUMPDEST PUSH0 DUP3 DUP3 SHL SWAP1 POP SWAP3 SWAP2 POP POP JUMP JUMPDEST PUSH0 PUSH1 0x8 DUP4 MUL PUSH3 0xAD8 PUSH32 REDACTED_SECRETFFFFFFFFFFFFFFFFFFFFFFFF DUP3 PUSH3 0xA9B JUMP JUMPDEST PUSH3 0xAE4 DUP7 DUP4 PUSH3 0xA9B JUMP JUMPDEST SWAP6 POP DUP1 NOT DUP5 AND SWAP4 POP DUP1 DUP7 AND DUP5 OR SWAP3 POP POP POP SWAP4 SWAP3 POP POP POP JUMP JUMPDEST PUSH0 DUP2 SWAP1 POP SWAP2 SWAP1 POP JUMP JUMPDEST PUSH0 PUSH3 0xB25 PUSH3 0xB1F PUSH3 0xB19 DUP5 PUSH3 0x8C9 JUMP JUMPDEST PUSH3 0xAFC JUMP JUMPDEST PUSH3 0x8C9 JUMP JUMPDEST SWAP1 POP SWAP2 SWAP1 POP JUMP JUMPDEST PUSH0 DUP2 SWAP1 POP SWAP2 SWAP1 POP JUMP JUMPDEST PUSH3 0xB40 DUP4 PUSH3 0xB05 JUMP JUMPDEST PUSH3 0xB58 PUSH3 0xB4F DUP3 PUSH3 0xB2C JUMP JUMPDEST DUP5 DUP5 SLOAD PUSH3 0xAA7 JUMP JUMPDEST DUP3 SSTORE POP POP POP POP JUMP JUMPDEST PUSH0 SWAP1 JUMP JUMPDEST PUSH3 0xB6E PUSH3 0xB60 JUMP JUMPDEST PUSH3 0xB7B DUP2 DUP5 DUP5 PUSH3 0xB35 JUMP JUMPDEST POP POP POP JUMP JUMPDEST JUMPDEST DUP2 DUP2 LT ISZERO PUSH3 0xBA2 JUMPI PUSH3 0xB96 PUSH0 DUP3 PUSH3 0xB64 JUMP JUMPDEST PUSH1 0x1 DUP2 ADD SWAP1 POP PUSH3 0xB81 JUMP JUMPDEST POP POP JUMP JUMPDEST PUSH1 0x1F DUP3 GT ISZERO PUSH3 0xBF1 JUMPI PUSH3 0xBBB DUP2 PUSH3 0xA7A JUMP JUMPDEST PUSH3 0xBC6 DUP5 PUSH3 0xA8C JUMP JUMPDEST DUP2 ADD PUSH1 0x20 DUP6 LT ISZERO PUSH3 0xBD6 JUMPI DUP2 SWAP1 POP JUMPDEST PUSH3 0xBEE PUSH3 0xBE5 DUP6 PUSH3 0xA8C JUMP JUMPDEST DUP4 ADD DUP3 PUSH3 0xB80 JUMP JUMPDEST POP POP JUMPDEST POP POP POP JUMP JUMPDEST PUSH0 DUP3 DUP3 SHR SWAP1 POP SWAP3 SWAP2 POP POP JUMP JUMPDEST PUSH0 PUSH3 0xC13 PUSH0 NOT DUP5 PUSH1 0x8 MUL PUSH3 0xBF6 JUMP JUMPDEST NOT DUP1 DUP4 AND SWAP2 POP POP SWAP3 SWAP2 POP POP JUMP JUMPDEST PUSH0 PUSH3 0xC2D DUP4 DUP4 PUSH3 0xC02 JUMP JUMPDEST SWAP2 POP DUP3 PUSH1 0x2 MUL DUP3 OR SWAP1 POP SWAP3 SWAP2 POP POP JUMP JUMPDEST PUSH3 0xC48 DUP3 PUSH3 0xA0F JUMP JUMPDEST PUSH8 0xFFFFFFFFFFFFFFFF DUP2 GT ISZERO PUSH3 0xC64 JUMPI PUSH3 0xC63 PUSH3 0x76D JUMP JUMPDEST JUMPDEST PUSH3 0xC70 DUP3 SLOAD PUSH3 0xA46 JUMP JUMPDEST PUSH3 0xC7D DUP3 DUP3 DUP6 PUSH3 0xBA6 JUMP JUMPDEST PUSH0 PUSH1 0x20 SWAP1 POP PUSH1 0x1F DUP4 GT PUSH1 0x1 DUP2 EQ PUSH3 0xCB3 JUMPI PUSH0 DUP5 ISZERO PUSH3 0xC9E JUMPI DUP3 DUP8 ADD MLOAD SWAP1 POP JUMPDEST PUSH3 0xCAA DUP6 DUP3 PUSH3 0xC20 JUMP JUMPDEST DUP7 SSTORE POP PUSH3 0xD19 JUMP JUMPDEST PUSH1 0x1F NOT DUP5 AND PUSH3 0xCC3 DUP7 PUSH3 0xA7A JUMP JUMPDEST PUSH0 JUMPDEST DUP3 DUP2 LT ISZERO PUSH3 0xCEC JUMPI DUP5 DUP10 ADD MLOAD DUP3 SSTORE PUSH1 0x1 DUP3 ADD SWAP2 POP PUSH1 0x20 DUP6 ADD SWAP5 POP PUSH1 0x20 DUP2 ADD SWAP1 POP PUSH3 0xCC5 JUMP JUMPDEST DUP7 DUP4 LT ISZERO PUSH3 0xD0C JUMPI DUP5 DUP10 ADD MLOAD PUSH3 0xD08 PUSH1 0x1F DUP10 AND DUP3 PUSH3 0xC02 JUMP JUMPDEST DUP4 SSTORE POP JUMPDEST PUSH1 0x1 PUSH1 0x2 DUP9 MUL ADD DUP9 SSTORE POP POP POP JUMPDEST POP POP POP POP POP POP JUMP JUMPDEST PUSH3 0xD2C DUP2 PUSH3 0x920 JUMP JUMPDEST DUP3 MSTORE POP POP JUMP JUMPDEST PUSH0 PUSH1 0x20 DUP3 ADD SWAP1 POP PUSH3 0xD47 PUSH0 DUP4 ADD DUP5 PUSH3 0xD21 JUMP JUMPDEST SWAP3 SWAP2 POP POP JUMP JUMPDEST PUSH32 REDACTED_SECRET000000000000000000000000 PUSH0 MSTORE PUSH1 0x11 PUSH1 0x4 MSTORE PUSH1 0x24 PUSH0 REVERT JUMPDEST PUSH0 DUP2 PUSH1 0x1 SHR SWAP1 POP SWAP2 SWAP1 POP JUMP JUMPDEST PUSH0 DUP1 DUP3 SWAP2 POP DUP4 SWAP1 POP JUMPDEST PUSH1 0x1 DUP6 GT ISZERO PUSH3 0xDD7 JUMPI DUP1 DUP7 DIV DUP2 GT ISZERO PUSH3 0xDAF JUMPI PUSH3 0xDAE PUSH3 0xD4D JUMP JUMPDEST JUMPDEST PUSH1 0x1 DUP6 AND ISZERO PUSH3 0xDBF JUMPI DUP1 DUP3 MUL SWAP2 POP JUMPDEST DUP1 DUP2 MUL SWAP1 POP PUSH3 0xDCF DUP6 PUSH3 0xD7A JUMP JUMPDEST SWAP5 POP PUSH3 0xD8F JUMP JUMPDEST SWAP5 POP SWAP5 SWAP3 POP POP POP JUMP JUMPDEST PUSH0 DUP3 PUSH3 0xDF1 JUMPI PUSH1 0x1 SWAP1 POP PUSH3 0xEC3 JUMP JUMPDEST DUP2 PUSH3 0xE00 JUMPI PUSH0 SWAP1 POP PUSH3 0xEC3 JUMP JUMPDEST DUP2 PUSH1 0x1 DUP2 EQ PUSH3 0xE19 JUMPI PUSH1 0x2 DUP2 EQ PUSH3 0xE24 JUMPI PUSH3 0xE5A JUMP JUMPDEST PUSH1 0x1 SWAP2 POP POP PUSH3 0xEC3 JUMP JUMPDEST PUSH1 0xFF DUP5 GT ISZERO PUSH3 0xE39 JUMPI PUSH3 0xE38 PUSH3 0xD4D JUMP JUMPDEST JUMPDEST DUP4 PUSH1 0x2 EXP SWAP2 POP DUP5 DUP3 GT ISZERO PUSH3 0xE53 JUMPI PUSH3 0xE52 PUSH3 0xD4D JUMP JUMPDEST JUMPDEST POP PUSH3 0xEC3 JUMP JUMPDEST POP PUSH1 0x20 DUP4 LT PUSH2 0x133 DUP4 LT AND PUSH1 0x4E DUP5 LT PUSH1 0xB DUP5 LT AND OR ISZERO PUSH3 0xE94 JUMPI DUP3 DUP3 EXP SWAP1 POP DUP4 DUP2 GT ISZERO PUSH3 0xE8E JUMPI PUSH3 0xE8D PUSH3 0xD4D JUMP JUMPDEST JUMPDEST PUSH3 0xEC3 JUMP JUMPDEST PUSH3 0xEA3 DUP5 DUP5 DUP5 PUSH1 0x1 PUSH3 0xD86 JUMP JUMPDEST SWAP3 POP SWAP1 POP DUP2 DUP5 DIV DUP2 GT ISZERO PUSH3 0xEBD JUMPI PUSH3 0xEBC PUSH3 0xD4D JUMP JUMPDEST JUMPDEST DUP2 DUP2 MUL SWAP1 POP JUMPDEST SWAP4 SWAP3 POP POP POP JUMP JUMPDEST PUSH0 PUSH1 0xFF DUP3 AND SWAP1 POP SWAP2 SWAP1 POP JUMP JUMPDEST PUSH0 PUSH3 0xEE2 DUP3 PUSH3 0x8C9 JUMP JUMPDEST SWAP2 POP PUSH3 0xEEF DUP4 PUSH3 0xECA JUMP JUMPDEST SWAP3 POP PUSH3 0xF1E PUSH32 REDACTED_SECRETFFFFFFFFFFFFFFFFFFFFFFFF DUP5 DUP5 PUSH3 0xDE0 JUMP JUMPDEST SWAP1 POP SWAP3 SWAP2 POP POP JUMP JUMPDEST PUSH0 PUSH3 0xF32 DUP3 PUSH3 0x8C9 JUMP JUMPDEST SWAP2 POP PUSH3 0xF3F DUP4 PUSH3 0x8C9 JUMP JUMPDEST SWAP3 POP DUP3 DUP3 MUL PUSH3 0xF4F DUP2 PUSH3 0x8C9 JUMP JUMPDEST SWAP2 POP DUP3 DUP3 DIV DUP5 EQ DUP4 ISZERO OR PUSH3 0xF69 JUMPI PUSH3 0xF68 PUSH3 0xD4D JUMP JUMPDEST JUMPDEST POP SWAP3 SWAP2 POP POP JUMP JUMPDEST PUSH32 REDACTED_SECRET000000000000000000000000 PUSH0 MSTORE PUSH1 0x12 PUSH1 0x4 MSTORE PUSH1 0x24 PUSH0 REVERT JUMPDEST PUSH0 PUSH3 0xFA9 DUP3 PUSH3 0x8C9 JUMP JUMPDEST SWAP2 POP PUSH3 0xFB6 DUP4 PUSH3 0x8C9 JUMP JUMPDEST SWAP3 POP DUP3 PUSH3 0xFC9 JUMPI PUSH3 0xFC8 PUSH3 0xF70 JUMP JUMPDEST JUMPDEST DUP3 DUP3 DIV SWAP1 POP SWAP3 SWAP2 POP POP JUMP JUMPDEST PUSH0 PUSH3 0xFE0 DUP3 PUSH3 0x8C9 JUMP JUMPDEST SWAP2 POP PUSH3 0xFED DUP4 PUSH3 0x8C9 JUMP JUMPDEST SWAP3 POP DUP3 DUP3 ADD SWAP1 POP DUP1 DUP3 GT ISZERO PUSH3 0x1008 JUMPI PUSH3 0x1007 PUSH3 0xD4D JUMP JUMPDEST JUMPDEST SWAP3 SWAP2 POP POP JUMP JUMPDEST PUSH3 0x1019 DUP2 PUSH3 0x8C9 JUMP JUMPDEST DUP3 MSTORE POP POP JUMP JUMPDEST PUSH0 PUSH1 0x20 DUP3 ADD SWAP1 POP PUSH3 0x1034 PUSH0 DUP4 ADD DUP5 PUSH3 0x100E JUMP JUMPDEST SWAP3 SWAP2 POP POP JUMP JUMPDEST PUSH0 PUSH3 0x1046 DUP3 PUSH3 0x8C9 JUMP JUMPDEST SWAP2 POP PUSH3 0x1053 DUP4 PUSH3 0x8C9 JUMP JUMPDEST SWAP3 POP DUP3 DUP3 SUB SWAP1 POP DUP2 DUP2 GT ISZERO PUSH3 0x106E JUMPI PUSH3 0x106D PUSH3 0xD4D JUMP JUMPDEST JUMPDEST SWAP3 SWAP2 POP POP JUMP JUMPDEST PUSH0 PUSH1 0x60 DUP3 ADD SWAP1 POP PUSH3 0x1089 PUSH0 DUP4 ADD DUP7 PUSH3 0xD21 JUMP JUMPDEST PUSH3 0x1098 PUSH1 0x20 DUP4 ADD DUP6 PUSH3 0x100E JUMP JUMPDEST PUSH3 0x10A7 PUSH1 0x40 DUP4 ADD DUP5 PUSH3 0x100E JUMP JUMPDEST SWAP5 SWAP4 POP POP POP POP JUMP JUMPDEST PUSH2 0x1E31 DUP1 PUSH3 0x10BD PUSH0 CODECOPY PUSH0 RETURN INVALID PUSH1 0x80 PUSH1 0x40 MSTORE CALLVALUE DUP1 ISZERO PUSH2 0xF JUMPI PUSH0 DUP1 REVERT JUMPDEST POP PUSH1 0x4 CALLDATASIZE LT PUSH2 0x140 JUMPI PUSH0 CALLDATALOAD PUSH1 0xE0 SHR DUP1 PUSH4 0x8DA5CB5B GT PUSH2 0xB6 JUMPI DUP1 PUSH4 0xC5F956AF GT PUSH2 0x7A JUMPI DUP1 PUSH4 0xC5F956AF EQ PUSH2 0x352 JUMPI DUP1 PUSH4 0xD89135CD EQ PUSH2 0x370 JUMPI DUP1 PUSH4 0xDD62ED3E EQ PUSH2 0x38E JUMPI DUP1 PUSH4 0xE111703A EQ PUSH2 0x3BE JUMPI DUP1 PUSH4 0xF2FDE38B EQ PUSH2 0x3DC JUMPI DUP1 PUSH4 0xFAD5C5B3 EQ PUSH2 0x3F8 JUMPI PUSH2 0x140 JUMP JUMPDEST DUP1 PUSH4 0x8DA5CB5B EQ PUSH2 0x2C0 JUMPI DUP1 PUSH4 0x95D89B41 EQ PUSH2 0x2DE JUMPI DUP1 PUSH4 0xA694FC3A EQ PUSH2 0x2FC JUMPI DUP1 PUSH4 0xA9059CBB EQ PUSH2 0x318 JUMPI DUP1 PUSH4 0xB88A802F EQ PUSH2 0x348 JUMPI PUSH2 0x140 JUMP JUMPDEST DUP1 PUSH4 0x23B872DD GT PUSH2 0x108 JUMPI DUP1 PUSH4 0x23B872DD EQ PUSH2 0x212 JUMPI DUP1 PUSH4 0x2DEF6620 EQ PUSH2 0x242 JUMPI DUP1 PUSH4 0x313CE567 EQ PUSH2 0x24C JUMPI DUP1 PUSH4 0x6605BFDA EQ PUSH2 0x26A JUMPI DUP1 PUSH4 0x70A08231 EQ PUSH2 0x286 JUMPI DUP1 PUSH4 0x715018A6 EQ PUSH2 0x2B6 JUMPI PUSH2 0x140 JUMP JUMPDEST DUP1 PUSH4 0x6FDDE03 EQ PUSH2 0x144 JUMPI DUP1 PUSH4 0x700037D EQ PUSH2 0x162 JUMPI DUP1 PUSH4 0x95EA7B3 EQ PUSH2 0x192 JUMPI DUP1 PUSH4 0x16934FC4 EQ PUSH2 0x1C2 JUMPI DUP1 PUSH4 0x18160DDD EQ PUSH2 0x1F4 JUMPI JUMPDEST PUSH0 DUP1 REVERT JUMPDEST PUSH2 0x14C PUSH2 0x416 JUMP JUMPDEST PUSH1 0x40 MLOAD PUSH2 0x159 SWAP2 SWAP1 PUSH2 0x17D9 JUMP JUMPDEST PUSH1 0x40 MLOAD DUP1 SWAP2 SUB SWAP1 RETURN JUMPDEST PUSH2 0x17C PUSH1 0x4 DUP1 CALLDATASIZE SUB DUP2 ADD SWAP1 PUSH2 0x177 SWAP2 SWAP1 PUSH2 0x1857 JUMP JUMPDEST PUSH2 0x4A6 JUMP JUMPDEST PUSH1 0x40 MLOAD PUSH2 0x189 SWAP2 SWAP1 PUSH2 0x189A JUMP JUMPDEST PUSH1 0x40 MLOAD DUP1 SWAP2 SUB SWAP1 RETURN JUMPDEST PUSH2 0x1AC PUSH1 0x4 DUP1 CALLDATASIZE SUB DUP2 ADD SWAP1 PUSH2 0x1A7 SWAP2 SWAP1 PUSH2 0x18DD JUMP JUMPDEST PUSH2 0x4BB JUMP JUMPDEST PUSH1 0x40 MLOAD PUSH2 0x1B9 SWAP2 SWAP1 PUSH2 0x1935 JUMP JUMPDEST PUSH1 0x40 MLOAD DUP1 SWAP2 SUB SWAP1 RETURN JUMPDEST PUSH2 0x1DC PUSH1 0x4 DUP1 CALLDATASIZE SUB DUP2 ADD SWAP1 PUSH2 0x1D7 SWAP2 SWAP1 PUSH2 0x1857 JUMP JUMPDEST PUSH2 0x4DD JUMP JUMPDEST PUSH1 0x40 MLOAD PUSH2 0x1EB SWAP4 SWAP3 SWAP2 SWAP1 PUSH2 0x194E JUMP JUMPDEST PUSH1 0x40 MLOAD DUP1 SWAP2 SUB SWAP1 RETURN JUMPDEST PUSH2 0x1FC PUSH2 0x50F JUMP JUMPDEST PUSH1 0x40 MLOAD PUSH2 0x209 SWAP2 SWAP1 PUSH2 0x189A JUMP JUMPDEST PUSH1 0x40 MLOAD DUP1 SWAP2 SUB SWAP1 RETURN JUMPDEST PUSH2 0x22C PUSH1 0x4 DUP1 CALLDATASIZE SUB DUP2 ADD SWAP1 PUSH2 0x227 SWAP2 SWAP1 PUSH2 0x1983 JUMP JUMPDEST PUSH2 0x518 JUMP JUMPDEST PUSH1 0x40 MLOAD PUSH2 0x239 SWAP2 SWAP1 PUSH2 0x1935 JUMP JUMPDEST PUSH1 0x40 MLOAD DUP1 SWAP2 SUB SWAP1 RETURN JUMPDEST PUSH2 0x24A PUSH2 0x546 JUMP JUMPDEST STOP JUMPDEST PUSH2 0x254 PUSH2 0x78B JUMP JUMPDEST PUSH1 0x40 MLOAD PUSH2 0x261 SWAP2 SWAP1 PUSH2 0x19EE JUMP JUMPDEST PUSH1 0x40 MLOAD DUP1 SWAP2 SUB SWAP1 RETURN JUMPDEST PUSH2 0x284 PUSH1 0x4 DUP1 CALLDATASIZE SUB DUP2 ADD SWAP1 PUSH2 0x27F SWAP2 SWAP1 PUSH2 0x1857 JUMP JUMPDEST PUSH2 0x793 JUMP JUMPDEST STOP JUMPDEST PUSH2 0x2A0 PUSH1 0x4 DUP1 CALLDATASIZE SUB DUP2 ADD SWAP1 PUSH2 0x29B SWAP2 SWAP1 PUSH2 0x1857 JUMP JUMPDEST PUSH2 0x7DE JUMP JUMPDEST PUSH1 0x40 MLOAD PUSH2 0x2AD SWAP2 SWAP1 PUSH2 0x189A JUMP JUMPDEST PUSH1 0x40 MLOAD DUP1 SWAP2 SUB SWAP1 RETURN JUMPDEST PUSH2 0x2BE PUSH2 0x823 JUMP JUMPDEST STOP JUMPDEST PUSH2 0x2C8 PUSH2 0x836 JUMP JUMPDEST PUSH1 0x40 MLOAD PUSH2 0x2D5 SWAP2 SWAP1 PUSH2 0x1A16 JUMP JUMPDEST PUSH1 0x40 MLOAD DUP1 SWAP2 SUB SWAP1 RETURN JUMPDEST PUSH2 0x2E6 PUSH2 0x85E JUMP JUMPDEST PUSH1 0x40 MLOAD PUSH2 0x2F3 SWAP2 SWAP1 PUSH2 0x17D9 JUMP JUMPDEST PUSH1 0x40 MLOAD DUP1 SWAP2 SUB SWAP1 RETURN JUMPDEST PUSH2 0x316 PUSH1 0x4 DUP1 CALLDATASIZE SUB DUP2 ADD SWAP1 PUSH2 0x311 SWAP2 SWAP1 PUSH2 0x1A2F JUMP JUMPDEST PUSH2 0x8EE JUMP JUMPDEST STOP JUMPDEST PUSH2 0x332 PUSH1 0x4 DUP1 CALLDATASIZE SUB DUP2 ADD SWAP1 PUSH2 0x32D SWAP2 SWAP1 PUSH2 0x18DD JUMP JUMPDEST PUSH2 0xAD1 JUMP JUMPDEST PUSH1 0x40 MLOAD PUSH2 0x33F SWAP2 SWAP1 PUSH2 0x1935 JUMP JUMPDEST PUSH1 0x40 MLOAD DUP1 SWAP2 SUB SWAP1 RETURN JUMPDEST PUSH2 0x350 PUSH2 0xAF3 JUMP JUMPDEST STOP JUMPDEST PUSH2 0x35A PUSH2 0xC23 JUMP JUMPDEST PUSH1 0x40 MLOAD PUSH2 0x367 SWAP2 SWAP1 PUSH2 0x1A16 JUMP JUMPDEST PUSH1 0x40 MLOAD DUP1 SWAP2 SUB SWAP1 RETURN JUMPDEST PUSH2 0x378 PUSH2 0xC48 JUMP JUMPDEST PUSH1 0x40 MLOAD PUSH2 0x385 SWAP2 SWAP1 PUSH2 0x189A JUMP JUMPDEST PUSH1 0x40 MLOAD DUP1 SWAP2 SUB SWAP1 RETURN JUMPDEST PUSH2 0x3A8 PUSH1 0x4 DUP1 CALLDATASIZE SUB DUP2 ADD SWAP1 PUSH2 0x3A3 SWAP2 SWAP1 PUSH2 0x1A5A JUMP JUMPDEST PUSH2 0xC4E JUMP JUMPDEST PUSH1 0x40 MLOAD PUSH2 0x3B5 SWAP2 SWAP1 PUSH2 0x189A JUMP JUMPDEST PUSH1 0x40 MLOAD DUP1 SWAP2 SUB SWAP1 RETURN JUMPDEST PUSH2 0x3C6 PUSH2 0xCD0 JUMP JUMPDEST PUSH1 0x40 MLOAD PUSH2 0x3D3 SWAP2 SWAP1 PUSH2 0x189A JUMP JUMPDEST PUSH1 0x40 MLOAD DUP1 SWAP2 SUB SWAP1 RETURN JUMPDEST PUSH2 0x3F6 PUSH1 0x4 DUP1 CALLDATASIZE SUB DUP2 ADD SWAP1 PUSH2 0x3F1 SWAP2 SWAP1 PUSH2 0x1857 JUMP JUMPDEST PUSH2 0xCD5 JUMP JUMPDEST STOP JUMPDEST PUSH2 0x400 PUSH2 0xD59 JUMP JUMPDEST PUSH1 0x40 MLOAD PUSH2 0x40D SWAP2 SWAP1 PUSH2 0x189A JUMP JUMPDEST PUSH1 0x40 MLOAD DUP1 SWAP2 SUB SWAP1 RETURN JUMPDEST PUSH1 0x60 PUSH1 0x3 DUP1 SLOAD PUSH2 0x425 SWAP1 PUSH2 0x1AC5 JUMP JUMPDEST DUP1 PUSH1 0x1F ADD PUSH1 0x20 DUP1 SWAP2 DIV MUL PUSH1 0x20 ADD PUSH1 0x40 MLOAD SWAP1 DUP2 ADD PUSH1 0x40 MSTORE DUP1 SWAP3 SWAP2 SWAP1 DUP2 DUP2 MSTORE PUSH1 0x20 ADD DUP3 DUP1 SLOAD PUSH2 0x451 SWAP1 PUSH2 0x1AC5 JUMP JUMPDEST DUP1 ISZERO PUSH2 0x49C JUMPI DUP1 PUSH1 0x1F LT PUSH2 0x473 JUMPI PUSH2 0x100 DUP1 DUP4 SLOAD DIV MUL DUP4 MSTORE SWAP2 PUSH1 0x20 ADD SWAP2 PUSH2 0x49C JUMP JUMPDEST DUP3 ADD SWAP2 SWAP1 PUSH0 MSTORE PUSH1 0x20 PUSH0 KECCAK256 SWAP1 JUMPDEST DUP2 SLOAD DUP2 MSTORE SWAP1 PUSH1 0x1 ADD SWAP1 PUSH1 0x20 ADD DUP1 DUP4 GT PUSH2 0x47F JUMPI DUP3 SWAP1 SUB PUSH1 0x1F AND DUP3 ADD SWAP2 JUMPDEST POP POP POP POP POP SWAP1 POP SWAP1 JUMP JUMPDEST PUSH1 0x9 PUSH1 0x20 MSTORE DUP1 PUSH0 MSTORE PUSH1 0x40 PUSH0 KECCAK256 PUSH0 SWAP2 POP SWAP1 POP SLOAD DUP2 JUMP JUMPDEST PUSH0 DUP1 PUSH2 0x4C5 PUSH2 0xD5E JUMP JUMPDEST SWAP1 POP PUSH2 0x4D2 DUP2 DUP6 DUP6 PUSH2 0xD65 JUMP JUMPDEST PUSH1 0x1 SWAP2 POP POP SWAP3 SWAP2 POP POP JUMP JUMPDEST PUSH1 0x8 PUSH1 0x20 MSTORE DUP1 PUSH0 MSTORE PUSH1 0x40 PUSH0 KECCAK256 PUSH0 SWAP2 POP SWAP1 POP DUP1 PUSH0 ADD SLOAD SWAP1 DUP1 PUSH1 0x1 ADD SLOAD SWAP1 DUP1 PUSH1 0x2 ADD PUSH0 SWAP1 SLOAD SWAP1 PUSH2 0x100 EXP SWAP1 DIV PUSH1 0xFF AND SWAP1 POP DUP4 JUMP JUMPDEST PUSH0 PUSH1 0x2 SLOAD SWAP1 POP SWAP1 JUMP JUMPDEST PUSH0 DUP1 PUSH2 0x522 PUSH2 0xD5E JUMP JUMPDEST SWAP1 POP PUSH2 0x52F DUP6 DUP3 DUP6 PUSH2 0xD77 JUMP JUMPDEST PUSH2 0x53A DUP6 DUP6 DUP6 PUSH2 0xE0A JUMP JUMPDEST PUSH1 0x1 SWAP2 POP POP SWAP4 SWAP3 POP POP POP JUMP JUMPDEST PUSH2 0x54E PUSH2 0xEFA JUMP JUMPDEST PUSH0 PUSH1 0x8 PUSH0 CALLER PUSH20 REDACTED_SECRET AND PUSH20 REDACTED_SECRET AND DUP2 MSTORE PUSH1 0x20 ADD SWAP1 DUP2 MSTORE PUSH1 0x20 ADD PUSH0 KECCAK256 PUSH1 0x40 MLOAD DUP1 PUSH1 0x60 ADD PUSH1 0x40 MSTORE SWAP1 DUP2 PUSH0 DUP3 ADD SLOAD DUP2 MSTORE PUSH1 0x20 ADD PUSH1 0x1 DUP3 ADD SLOAD DUP2 MSTORE PUSH1 0x20 ADD PUSH1 0x2 DUP3 ADD PUSH0 SWAP1 SLOAD SWAP1 PUSH2 0x100 EXP SWAP1 DIV PUSH1 0xFF AND ISZERO ISZERO ISZERO ISZERO DUP2 MSTORE POP POP SWAP1 POP DUP1 PUSH1 0x40 ADD MLOAD PUSH2 0x60A JUMPI PUSH1 0x40 MLOAD PUSH32 REDACTED_SECRET00000000000000000000000 DUP2 MSTORE PUSH1 0x4 ADD PUSH2 0x601 SWAP1 PUSH2 0x1B3F JUMP JUMPDEST PUSH1 0x40 MLOAD DUP1 SWAP2 SUB SWAP1 REVERT JUMPDEST PUSH0 DUP2 PUSH1 0x20 ADD MLOAD TIMESTAMP PUSH2 0x61B SWAP2 SWAP1 PUSH2 0x1B8A JUMP JUMPDEST SWAP1 POP PUSH0 PUSH4 0x1E13380 DUP3 DUP5 PUSH0 ADD MLOAD PUSH2 0x632 SWAP2 SWAP1 PUSH2 0x1BBD JUMP JUMPDEST PUSH2 0x63C SWAP2 SWAP1 PUSH2 0x1C2B JUMP JUMPDEST SWAP1 POP DUP1 PUSH1 0x9 PUSH0 CALLER PUSH20 REDACTED_SECRET AND PUSH20 REDACTED_SECRET AND DUP2 MSTORE PUSH1 0x20 ADD SWAP1 DUP2 MSTORE PUSH1 0x20 ADD PUSH0 KECCAK256 PUSH0 DUP3 DUP3 SLOAD PUSH2 0x68A SWAP2 SWAP1 PUSH2 0x1C5B JUMP JUMPDEST SWAP3 POP POP DUP2 SWAP1 SSTORE POP PUSH1 0x40 MLOAD DUP1 PUSH1 0x60 ADD PUSH1 0x40 MSTORE DUP1 PUSH0 DUP2 MSTORE PUSH1 0x20 ADD PUSH0 DUP2 MSTORE PUSH1 0x20 ADD PUSH0 ISZERO ISZERO DUP2 MSTORE POP PUSH1 0x8 PUSH0 CALLER PUSH20 REDACTED_SECRET AND PUSH20 REDACTED_SECRET AND DUP2 MSTORE PUSH1 0x20 ADD SWAP1 DUP2 MSTORE PUSH1 0x20 ADD PUSH0 KECCAK256 PUSH0 DUP3 ADD MLOAD DUP2 PUSH0 ADD SSTORE PUSH1 0x20 DUP3 ADD MLOAD DUP2 PUSH1 0x1 ADD SSTORE PUSH1 0x40 DUP3 ADD MLOAD DUP2 PUSH1 0x2 ADD PUSH0 PUSH2 0x100 EXP DUP2 SLOAD DUP2 PUSH1 0xFF MUL NOT AND SWAP1 DUP4 ISZERO ISZERO MUL OR SWAP1 SSTORE POP SWAP1 POP POP PUSH2 0x72D ADDRESS CALLER DUP6 PUSH0 ADD MLOAD PUSH2 0xE0A JUMP JUMPDEST CALLER PUSH20 REDACTED_SECRET AND PUSH32 REDACTED_SECRETB9F45F28E2D704232B93F75 DUP5 PUSH0 ADD MLOAD PUSH1 0x40 MLOAD PUSH2 0x776 SWAP2 SWAP1 PUSH2 0x189A JUMP JUMPDEST PUSH1 0x40 MLOAD DUP1 SWAP2 SUB SWAP1 LOG2 POP POP POP PUSH2 0x789 PUSH2 0xF1C JUMP JUMPDEST JUMP JUMPDEST PUSH0 PUSH1 0x12 SWAP1 POP SWAP1 JUMP JUMPDEST PUSH2 0x79B PUSH2 0xF36 JUMP JUMPDEST DUP1 PUSH1 0x7 PUSH0 PUSH2 0x100 EXP DUP2 SLOAD DUP2 PUSH20 REDACTED_SECRET MUL NOT AND SWAP1 DUP4 PUSH20 REDACTED_SECRET AND MUL OR SWAP1 SSTORE POP POP JUMP JUMPDEST PUSH0 DUP1 PUSH0 DUP4 PUSH20 REDACTED_SECRET AND PUSH20 REDACTED_SECRET AND DUP2 MSTORE PUSH1 0x20 ADD SWAP1 DUP2 MSTORE PUSH1 0x20 ADD PUSH0 KECCAK256 SLOAD SWAP1 POP SWAP2 SWAP1 POP JUMP JUMPDEST PUSH2 0x82B PUSH2 0xF36 JUMP JUMPDEST PUSH2 0x834 PUSH0 PUSH2 0xFBD JUMP JUMPDEST JUMP JUMPDEST PUSH0 PUSH1 0x5 PUSH0 SWAP1 SLOAD SWAP1 PUSH2 0x100 EXP SWAP1 DIV PUSH20 REDACTED_SECRET AND SWAP1 POP SWAP1 JUMP JUMPDEST PUSH1 0x60 PUSH1 0x4 DUP1 SLOAD PUSH2 0x86D SWAP1 PUSH2 0x1AC5 JUMP JUMPDEST DUP1 PUSH1 0x1F ADD PUSH1 0x20 DUP1 SWAP2 DIV MUL PUSH1 0x20 ADD PUSH1 0x40 MLOAD SWAP1 DUP2 ADD PUSH1 0x40 MSTORE DUP1 SWAP3 SWAP2 SWAP1 DUP2 DUP2 MSTORE PUSH1 0x20 ADD DUP3 DUP1 SLOAD PUSH2 0x899 SWAP1 PUSH2 0x1AC5 JUMP JUMPDEST DUP1 ISZERO PUSH2 0x8E4 JUMPI DUP1 PUSH1 0x1F LT PUSH2 0x8BB JUMPI PUSH2 0x100 DUP1 DUP4 SLOAD DIV MUL DUP4 MSTORE SWAP2 PUSH1 0x20 ADD SWAP2 PUSH2 0x8E4 JUMP JUMPDEST DUP3 ADD SWAP2 SWAP1 PUSH0 MSTORE PUSH1 0x20 PUSH0 KECCAK256 SWAP1 JUMPDEST DUP2 SLOAD DUP2 MSTORE SWAP1 PUSH1 0x1 ADD SWAP1 PUSH1 0x20 ADD DUP1 DUP4 GT PUSH2 0x8C7 JUMPI DUP3 SWAP1 SUB PUSH1 0x1F AND DUP3 ADD SWAP2 JUMPDEST POP POP POP POP POP SWAP1 POP SWAP1 JUMP JUMPDEST PUSH2 0x8F6 PUSH2 0xEFA JUMP JUMPDEST PUSH0 DUP2 GT PUSH2 0x938 JUMPI PUSH1 0x40 MLOAD PUSH32 REDACTED_SECRET00000000000000000000000 DUP2 MSTORE PUSH1 0x4 ADD PUSH2 0x92F SWAP1 PUSH2 0x1CD8 JUMP JUMPDEST PUSH1 0x40 MLOAD DUP1 SWAP2 SUB SWAP1 REVERT JUMPDEST DUP1 PUSH2 0x942 CALLER PUSH2 0x7DE JUMP JUMPDEST LT ISZERO PUSH2 0x983 JUMPI PUSH1 0x40 MLOAD PUSH32 REDACTED_SECRET00000000000000000000000 DUP2 MSTORE PUSH1 0x4 ADD PUSH2 0x97A SWAP1 PUSH2 0x1D40 JUMP JUMPDEST PUSH1 0x40 MLOAD DUP1 SWAP2 SUB SWAP1 REVERT JUMPDEST PUSH1 0x8 PUSH0 CALLER PUSH20 REDACTED_SECRET AND PUSH20 REDACTED_SECRET AND DUP2 MSTORE PUSH1 0x20 ADD SWAP1 DUP2 MSTORE PUSH1 0x20 ADD PUSH0 KECCAK256 PUSH1 0x2 ADD PUSH0 SWAP1 SLOAD SWAP1 PUSH2 0x100 EXP SWAP1 DIV PUSH1 0xFF AND ISZERO PUSH2 0x9DE JUMPI PUSH2 0x9DD PUSH2 0x546 JUMP JUMPDEST JUMPDEST PUSH2 0x9E9 CALLER ADDRESS DUP4 PUSH2 0xE0A JUMP JUMPDEST PUSH1 0x40 MLOAD DUP1 PUSH1 0x60 ADD PUSH1 0x40 MSTORE DUP1 DUP3 DUP2 MSTORE PUSH1 0x20 ADD TIMESTAMP DUP2 MSTORE PUSH1 0x20 ADD PUSH1 0x1 ISZERO ISZERO DUP2 MSTORE POP PUSH1 0x8 PUSH0 CALLER PUSH20 REDACTED_SECRET AND PUSH20 REDACTED_SECRET AND DUP2 MSTORE PUSH1 0x20 ADD SWAP1 DUP2 MSTORE PUSH1 0x20 ADD PUSH0 KECCAK256 PUSH0 DUP3 ADD MLOAD DUP2 PUSH0 ADD SSTORE PUSH1 0x20 DUP3 ADD MLOAD DUP2 PUSH1 0x1 ADD SSTORE PUSH1 0x40 DUP3 ADD MLOAD DUP2 PUSH1 0x2 ADD PUSH0 PUSH2 0x100 EXP DUP2 SLOAD DUP2 PUSH1 0xFF MUL NOT AND SWAP1 DUP4 ISZERO ISZERO MUL OR SWAP1 SSTORE POP SWAP1 POP POP CALLER PUSH20 REDACTED_SECRET AND PUSH32 REDACTED_SECRET4319F9DBDA79B67BD34A5F3D DUP3 PUSH1 0x40 MLOAD PUSH2 0xABE SWAP2 SWAP1 PUSH2 0x189A JUMP JUMPDEST PUSH1 0x40 MLOAD DUP1 SWAP2 SUB SWAP1 LOG2 PUSH2 0xACE PUSH2 0xF1C JUMP JUMPDEST POP JUMP JUMPDEST PUSH0 DUP1 PUSH2 0xADB PUSH2 0xD5E JUMP JUMPDEST SWAP1 POP PUSH2 0xAE8 DUP2 DUP6 DUP6 PUSH2 0xE0A JUMP JUMPDEST PUSH1 0x1 SWAP2 POP POP SWAP3 SWAP2 POP POP JUMP JUMPDEST PUSH2 0xAFB PUSH2 0xEFA JUMP JUMPDEST PUSH0 PUSH1 0x9 PUSH0 CALLER PUSH20 REDACTED_SECRET AND PUSH20 REDACTED_SECRET AND DUP2 MSTORE PUSH1 0x20 ADD SWAP1 DUP2 MSTORE PUSH1 0x20 ADD PUSH0 KECCAK256 SLOAD SWAP1 POP PUSH0 DUP2 GT PUSH2 0xB7E JUMPI PUSH1 0x40 MLOAD PUSH32 REDACTED_SECRET00000000000000000000000 DUP2 MSTORE PUSH1 0x4 ADD PUSH2 0xB75 SWAP1 PUSH2 0x1DA8 JUMP JUMPDEST PUSH1 0x40 MLOAD DUP1 SWAP2 SUB SWAP1 REVERT JUMPDEST PUSH0 PUSH1 0x9 PUSH0 CALLER PUSH20 REDACTED_SECRET AND PUSH20 REDACTED_SECRET AND DUP2 MSTORE PUSH1 0x20 ADD SWAP1 DUP2 MSTORE PUSH1 0x20 ADD PUSH0 KECCAK256 DUP2 SWAP1 SSTORE POP PUSH2 0xBCA CALLER DUP3 PUSH2 0x1080 JUMP JUMPDEST CALLER PUSH20 REDACTED_SECRET AND PUSH32 REDACTED_SECRET393F561D3EDA32AE348F7241 DUP3 PUSH1 0x40 MLOAD PUSH2 0xC10 SWAP2 SWAP1 PUSH2 0x189A JUMP JUMPDEST PUSH1 0x40 MLOAD DUP1 SWAP2 SUB SWAP1 LOG2 POP PUSH2 0xC21 PUSH2 0xF1C JUMP JUMPDEST JUMP JUMPDEST PUSH1 0x7 PUSH0 SWAP1 SLOAD SWAP1 PUSH2 0x100 EXP SWAP1 DIV PUSH20 REDACTED_SECRET AND DUP2 JUMP JUMPDEST PUSH1 0x6 SLOAD DUP2 JUMP JUMPDEST PUSH0 PUSH1 0x1 PUSH0 DUP5 PUSH20 REDACTED_SECRET AND PUSH20 REDACTED_SECRET AND DUP2 MSTORE PUSH1 0x20 ADD SWAP1 DUP2 MSTORE PUSH1 0x20 ADD PUSH0 KECCAK256 PUSH0 DUP4 PUSH20 REDACTED_SECRET AND PUSH20 REDACTED_SECRET AND DUP2 MSTORE PUSH1 0x20 ADD SWAP1 DUP2 MSTORE PUSH1 0x20 ADD PUSH0 KECCAK256 SLOAD SWAP1 POP SWAP3 SWAP2 POP POP JUMP JUMPDEST PUSH1 0x1 DUP2 JUMP JUMPDEST PUSH2 0xCDD PUSH2 0xF36 JUMP JUMPDEST PUSH0 PUSH20 REDACTED_SECRET AND DUP2 PUSH20 REDACTED_SECRET AND SUB PUSH2 0xD4D JUMPI PUSH0 PUSH1 0x40 MLOAD PUSH32 REDACTED_SECRET000000000000000000000000 DUP2 MSTORE PUSH1 0x4 ADD PUSH2 0xD44 SWAP2 SWAP1 PUSH2 0x1A16 JUMP JUMPDEST PUSH1 0x40 MLOAD DUP1 SWAP2 SUB SWAP1 REVERT JUMPDEST PUSH2 0xD56 DUP2 PUSH2 0xFBD JUMP JUMPDEST POP JUMP JUMPDEST PUSH1 0x2 DUP2 JUMP JUMPDEST PUSH0 CALLER SWAP1 POP SWAP1 JUMP JUMPDEST PUSH2 0xD72 DUP4 DUP4 DUP4 PUSH1 0x1 PUSH2 0x10FF JUMP JUMPDEST POP POP POP JUMP JUMPDEST PUSH0 PUSH2 0xD82 DUP5 DUP5 PUSH2 0xC4E JUMP JUMPDEST SWAP1 POP PUSH32 REDACTED_SECRETFFFFFFFFFFFFFFFFFFFFFFFF DUP2 LT ISZERO PUSH2 0xE04 JUMPI DUP2 DUP2 LT ISZERO PUSH2 0xDF5 JUMPI DUP3 DUP2 DUP4 PUSH1 0x40 MLOAD PUSH32 REDACTED_SECRET000000000000000000000000 DUP2 MSTORE PUSH1 0x4 ADD PUSH2 0xDEC SWAP4 SWAP3 SWAP2 SWAP1 PUSH2 0x1DC6 JUMP JUMPDEST PUSH1 0x40 MLOAD DUP1 SWAP2 SUB SWAP1 REVERT JUMPDEST PUSH2 0xE03 DUP5 DUP5 DUP5 DUP5 SUB PUSH0 PUSH2 0x10FF JUMP JUMPDEST JUMPDEST POP POP POP POP JUMP JUMPDEST PUSH0 PUSH20 REDACTED_SECRET AND DUP4 PUSH20 REDACTED_SECRET AND SUB PUSH2 0xE7A JUMPI PUSH0 PUSH1 0x40 MLOAD PUSH32 REDACTED_SECRET000000000000000000000000 DUP2 MSTORE PUSH1 0x4 ADD PUSH2 0xE71 SWAP2 SWAP1 PUSH2 0x1A16 JUMP JUMPDEST PUSH1 0x40 MLOAD DUP1 SWAP2 SUB SWAP1 REVERT JUMPDEST PUSH0 PUSH20 REDACTED_SECRET AND DUP3 PUSH20 REDACTED_SECRET AND SUB PUSH2 0xEEA JUMPI PUSH0 PUSH1 0x40 MLOAD PUSH32 REDACTED_SECRET000000000000000000000000 DUP2 MSTORE PUSH1 0x4 ADD PUSH2 0xEE1 SWAP2 SWAP1 PUSH2 0x1A16 JUMP JUMPDEST PUSH1 0x40 MLOAD DUP1 SWAP2 SUB SWAP1 REVERT JUMPDEST PUSH2 0xEF5 DUP4 DUP4 DUP4 PUSH2 0x12CE JUMP JUMPDEST POP POP POP JUMP JUMPDEST PUSH2 0xF02 PUSH2 0x14A7 JUMP JUMPDEST PUSH1 0x2 PUSH2 0xF14 PUSH2 0xF0F PUSH2 0x14E8 JUMP JUMPDEST PUSH2 0x1511 JUMP JUMPDEST PUSH0 ADD DUP2 SWAP1 SSTORE POP JUMP JUMPDEST PUSH1 0x1 PUSH2 0xF2E PUSH2 0xF29 PUSH2 0x14E8 JUMP JUMPDEST PUSH2 0x1511 JUMP JUMPDEST PUSH0 ADD DUP2 SWAP1 SSTORE POP JUMP JUMPDEST PUSH2 0xF3E PUSH2 0xD5E JUMP JUMPDEST PUSH20 REDACTED_SECRET AND PUSH2 0xF5C PUSH2 0x836 JUMP JUMPDEST PUSH20 REDACTED_SECRET AND EQ PUSH2 0xFBB JUMPI PUSH2 0xF7F PUSH2 0xD5E JUMP JUMPDEST PUSH1 0x40 MLOAD PUSH32 REDACTED_SECRET000000000000000000000000 DUP2 MSTORE PUSH1 0x4 ADD PUSH2 0xFB2 SWAP2 SWAP1 PUSH2 0x1A16 JUMP JUMPDEST PUSH1 0x40 MLOAD DUP1 SWAP2 SUB SWAP1 REVERT JUMPDEST JUMP JUMPDEST PUSH0 PUSH1 0x5 PUSH0 SWAP1 SLOAD SWAP1 PUSH2 0x100 EXP SWAP1 DIV PUSH20 REDACTED_SECRET AND SWAP1 POP DUP2 PUSH1 0x5 PUSH0 PUSH2 0x100 EXP DUP2 SLOAD DUP2 PUSH20 REDACTED_SECRET MUL NOT AND SWAP1 DUP4 PUSH20 REDACTED_SECRET AND MUL OR SWAP1 SSTORE POP DUP2 PUSH20 REDACTED_SECRET AND DUP2 PUSH20 REDACTED_SECRET AND PUSH32 REDACTED_SECRET22A3DAAFE3B4186F6B6457E0 PUSH1 0x40 MLOAD PUSH1 0x40 MLOAD DUP1 SWAP2 SUB SWAP1 LOG3 POP POP JUMP JUMPDEST PUSH0 PUSH20 REDACTED_SECRET AND DUP3 PUSH20 REDACTED_SECRET AND SUB PUSH2 0x10F0 JUMPI PUSH0 PUSH1 0x40 MLOAD PUSH32 REDACTED_SECRET000000000000000000000000 DUP2 MSTORE PUSH1 0x4 ADD PUSH2 0x10E7 SWAP2 SWAP1 PUSH2 0x1A16 JUMP JUMPDEST PUSH1 0x40 MLOAD DUP1 SWAP2 SUB SWAP1 REVERT JUMPDEST PUSH2 0x10FB PUSH0 DUP4 DUP4 PUSH2 0x12CE JUMP JUMPDEST POP POP JUMP JUMPDEST PUSH0 PUSH20 REDACTED_SECRET AND DUP5 PUSH20 REDACTED_SECRET AND SUB PUSH2 0x116F JUMPI PUSH0 PUSH1 0x40 MLOAD PUSH32 REDACTED_SECRET000000000000000000000000 DUP2 MSTORE PUSH1 0x4 ADD PUSH2 0x1166 SWAP2 SWAP1 PUSH2 0x1A16 JUMP JUMPDEST PUSH1 0x40 MLOAD DUP1 SWAP2 SUB SWAP1 REVERT JUMPDEST PUSH0 PUSH20 REDACTED_SECRET AND DUP4 PUSH20 REDACTED_SECRET AND SUB PUSH2 0x11DF JUMPI PUSH0 PUSH1 0x40 MLOAD PUSH32 REDACTED_SECRET000000000000000000000000 DUP2 MSTORE PUSH1 0x4 ADD PUSH2 0x11D6 SWAP2 SWAP1 PUSH2 0x1A16 JUMP JUMPDEST PUSH1 0x40 MLOAD DUP1 SWAP2 SUB SWAP1 REVERT JUMPDEST DUP2 PUSH1 0x1 PUSH0 DUP7 PUSH20 REDACTED_SECRET AND PUSH20 REDACTED_SECRET AND DUP2 MSTORE PUSH1 0x20 ADD SWAP1 DUP2 MSTORE PUSH1 0x20 ADD PUSH0 KECCAK256 PUSH0 DUP6 PUSH20 REDACTED_SECRET AND PUSH20 REDACTED_SECRET AND DUP2 MSTORE PUSH1 0x20 ADD SWAP1 DUP2 MSTORE PUSH1 0x20 ADD PUSH0 KECCAK256 DUP2 SWAP1 SSTORE POP DUP1 ISZERO PUSH2 0x12C8 JUMPI DUP3 PUSH20 REDACTED_SECRET AND DUP5 PUSH20 REDACTED_SECRET AND PUSH32 REDACTED_SECRETF7B2291E5B200AC8C7C3B925 DUP5 PUSH1 0x40 MLOAD PUSH2 0x12BF SWAP2 SWAP1 PUSH2 0x189A JUMP JUMPDEST PUSH1 0x40 MLOAD DUP1 SWAP2 SUB SWAP1 LOG3 JUMPDEST POP POP POP POP JUMP JUMPDEST PUSH0 PUSH20 REDACTED_SECRET AND DUP4 PUSH20 REDACTED_SECRET AND EQ ISZERO DUP1 ISZERO PUSH2 0x1336 JUMPI POP PUSH0 PUSH20 REDACTED_SECRET AND DUP3 PUSH20 REDACTED_SECRET AND EQ ISZERO JUMPDEST DUP1 ISZERO PUSH2 0x136E JUMPI POP ADDRESS PUSH20 REDACTED_SECRET AND DUP4 PUSH20 REDACTED_SECRET AND EQ ISZERO JUMPDEST DUP1 ISZERO PUSH2 0x13A6 JUMPI POP ADDRESS PUSH20 REDACTED_SECRET AND DUP3 PUSH20 REDACTED_SECRET AND EQ ISZERO JUMPDEST ISZERO PUSH2 0x1497 JUMPI PUSH0 PUSH1 0x64 PUSH1 0x2 DUP4 PUSH2 0x13BB SWAP2 SWAP1 PUSH2 0x1BBD JUMP JUMPDEST PUSH2 0x13C5 SWAP2 SWAP1 PUSH2 0x1C2B JUMP JUMPDEST SWAP1 POP PUSH0 PUSH1 0x64 PUSH1 0x1 DUP5 PUSH2 0x13D7 SWAP2 SWAP1 PUSH2 0x1BBD JUMP JUMPDEST PUSH2 0x13E1 SWAP2 SWAP1 PUSH2 0x1C2B JUMP JUMPDEST SWAP1 POP PUSH0 DUP3 GT ISZERO PUSH2 0x1446 JUMPI PUSH2 0x13F6 DUP6 PUSH0 DUP5 PUSH2 0x151A JUMP JUMPDEST DUP2 PUSH1 0x6 PUSH0 DUP3 DUP3 SLOAD PUSH2 0x1407 SWAP2 SWAP1 PUSH2 0x1C5B JUMP JUMPDEST SWAP3 POP POP DUP2 SWAP1 SSTORE POP PUSH32 REDACTED_SECRET39E9A1D6FE81D242E9CD7E6E DUP3 PUSH1 0x40 MLOAD PUSH2 0x143D SWAP2 SWAP1 PUSH2 0x189A JUMP JUMPDEST PUSH1 0x40 MLOAD DUP1 SWAP2 SUB SWAP1 LOG1 JUMPDEST PUSH0 DUP2 GT ISZERO PUSH2 0x147B JUMPI PUSH2 0x147A DUP6 PUSH1 0x7 PUSH0 SWAP1 SLOAD SWAP1 PUSH2 0x100 EXP SWAP1 DIV PUSH20 REDACTED_SECRET AND DUP4 PUSH2 0x151A JUMP JUMPDEST JUMPDEST DUP1 DUP3 DUP5 PUSH2 0x1488 SWAP2 SWAP1 PUSH2 0x1B8A JUMP JUMPDEST PUSH2 0x1492 SWAP2 SWAP1 PUSH2 0x1B8A JUMP JUMPDEST SWAP3 POP POP POP JUMPDEST PUSH2 0x14A2 DUP4 DUP4 DUP4 PUSH2 0x151A JUMP JUMPDEST POP POP POP JUMP JUMPDEST PUSH2 0x14AF PUSH2 0x1733 JUMP JUMPDEST ISZERO PUSH2 0x14E6 JUMPI PUSH1 0x40 MLOAD PUSH32 REDACTED_SECRET000000000000000000000000 DUP2 MSTORE PUSH1 0x4 ADD PUSH1 0x40 MLOAD DUP1 SWAP2 SUB SWAP1 REVERT JUMPDEST JUMP JUMPDEST PUSH0 PUSH32 REDACTED_SECRET3D6817E2486D003BECC55F00 PUSH0 SHL SWAP1 POP SWAP1 JUMP JUMPDEST PUSH0 DUP2 SWAP1 POP SWAP2 SWAP1 POP JUMP JUMPDEST PUSH0 PUSH20 REDACTED_SECRET AND DUP4 PUSH20 REDACTED_SECRET AND SUB PUSH2 0x156A JUMPI DUP1 PUSH1 0x2 PUSH0 DUP3 DUP3 SLOAD PUSH2 0x155E SWAP2 SWAP1 PUSH2 0x1C5B JUMP JUMPDEST SWAP3 POP POP DUP2 SWAP1 SSTORE POP PUSH2 0x1638 JUMP JUMPDEST PUSH0 DUP1 PUSH0 DUP6 PUSH20 REDACTED_SECRET AND PUSH20 REDACTED_SECRET AND DUP2 MSTORE PUSH1 0x20 ADD SWAP1 DUP2 MSTORE PUSH1 0x20 ADD PUSH0 KECCAK256 SLOAD SWAP1 POP DUP2 DUP2 LT ISZERO PUSH2 0x15F3 JUMPI DUP4 DUP2 DUP4 PUSH1 0x40 MLOAD PUSH32 REDACTED_SECRET000000000000000000000000 DUP2 MSTORE PUSH1 0x4 ADD PUSH2 0x15EA SWAP4 SWAP3 SWAP2 SWAP1 PUSH2 0x1DC6 JUMP JUMPDEST PUSH1 0x40 MLOAD DUP1 SWAP2 SUB SWAP1 REVERT JUMPDEST DUP2 DUP2 SUB PUSH0 DUP1 DUP7 PUSH20 REDACTED_SECRET AND PUSH20 REDACTED_SECRET AND DUP2 MSTORE PUSH1 0x20 ADD SWAP1 DUP2 MSTORE PUSH1 0x20 ADD PUSH0 KECCAK256 DUP2 SWAP1 SSTORE POP POP JUMPDEST PUSH0 PUSH20 REDACTED_SECRET AND DUP3 PUSH20 REDACTED_SECRET AND SUB PUSH2 0x167F JUMPI DUP1 PUSH1 0x2 PUSH0 DUP3 DUP3 SLOAD SUB SWAP3 POP POP DUP2 SWAP1 SSTORE POP PUSH2 0x16C9 JUMP JUMPDEST DUP1 PUSH0 DUP1 DUP5 PUSH20 REDACTED_SECRET AND PUSH20 REDACTED_SECRET AND DUP2 MSTORE PUSH1 0x20 ADD SWAP1 DUP2 MSTORE PUSH1 0x20 ADD PUSH0 KECCAK256 PUSH0 DUP3 DUP3 SLOAD ADD SWAP3 POP POP DUP2 SWAP1 SSTORE POP JUMPDEST DUP2 PUSH20 REDACTED_SECRET AND DUP4 PUSH20 REDACTED_SECRET AND PUSH32 REDACTED_SECRET63C4A11628F55A4DF523B3EF DUP4 PUSH1 0x40 MLOAD PUSH2 0x1726 SWAP2 SWAP1 PUSH2 0x189A JUMP JUMPDEST PUSH1 0x40 MLOAD DUP1 SWAP2 SUB SWAP1 LOG3 POP POP POP JUMP JUMPDEST PUSH0 PUSH1 0x2 PUSH2 0x1746 PUSH2 0x1741 PUSH2 0x14E8 JUMP JUMPDEST PUSH2 0x1511 JUMP JUMPDEST PUSH0 ADD SLOAD EQ SWAP1 POP SWAP1 JUMP JUMPDEST PUSH0 DUP2 MLOAD SWAP1 POP SWAP2 SWAP1 POP JUMP JUMPDEST PUSH0 DUP3 DUP3 MSTORE PUSH1 0x20 DUP3 ADD SWAP1 POP SWAP3 SWAP2 POP POP JUMP JUMPDEST PUSH0 JUMPDEST DUP4 DUP2 LT ISZERO PUSH2 0x1786 JUMPI DUP1 DUP3 ADD MLOAD DUP2 DUP5 ADD MSTORE PUSH1 0x20 DUP2 ADD SWAP1 POP PUSH2 0x176B JUMP JUMPDEST PUSH0 DUP5 DUP5 ADD MSTORE POP POP POP POP JUMP JUMPDEST PUSH0 PUSH1 0x1F NOT PUSH1 0x1F DUP4 ADD AND SWAP1 POP SWAP2 SWAP1 POP JUMP JUMPDEST PUSH0 PUSH2 0x17AB DUP3 PUSH2 0x174F JUMP JUMPDEST PUSH2 0x17B5 DUP2 DUP6 PUSH2 0x1759 JUMP JUMPDEST SWAP4 POP PUSH2 0x17C5 DUP2 DUP6 PUSH1 0x20 DUP7 ADD PUSH2 0x1769 JUMP JUMPDEST PUSH2 0x17CE DUP2 PUSH2 0x1791 JUMP JUMPDEST DUP5 ADD SWAP2 POP POP SWAP3 SWAP2 POP POP JUMP JUMPDEST PUSH0 PUSH1 0x20 DUP3 ADD SWAP1 POP DUP2 DUP2 SUB PUSH0 DUP4 ADD MSTORE PUSH2 0x17F1 DUP2 DUP5 PUSH2 0x17A1 JUMP JUMPDEST SWAP1 POP SWAP3 SWAP2 POP POP JUMP JUMPDEST PUSH0 DUP1 REVERT JUMPDEST PUSH0 PUSH20 REDACTED_SECRET DUP3 AND SWAP1 POP SWAP2 SWAP1 POP JUMP JUMPDEST PUSH0 PUSH2 0x1826 DUP3 PUSH2 0x17FD JUMP JUMPDEST SWAP1 POP SWAP2 SWAP1 POP JUMP JUMPDEST PUSH2 0x1836 DUP2 PUSH2 0x181C JUMP JUMPDEST DUP2 EQ PUSH2 0x1840 JUMPI PUSH0 DUP1 REVERT JUMPDEST POP JUMP JUMPDEST PUSH0 DUP2 CALLDATALOAD SWAP1 POP PUSH2 0x1851 DUP2 PUSH2 0x182D JUMP JUMPDEST SWAP3 SWAP2 POP POP JUMP JUMPDEST PUSH0 PUSH1 0x20 DUP3 DUP5 SUB SLT ISZERO PUSH2 0x186C JUMPI PUSH2 0x186B PUSH2 0x17F9 JUMP JUMPDEST JUMPDEST PUSH0 PUSH2 0x1879 DUP5 DUP3 DUP6 ADD PUSH2 0x1843 JUMP JUMPDEST SWAP2 POP POP SWAP3 SWAP2 POP POP JUMP JUMPDEST PUSH0 DUP2 SWAP1 POP SWAP2 SWAP1 POP JUMP JUMPDEST PUSH2 0x1894 DUP2 PUSH2 0x1882 JUMP JUMPDEST DUP3 MSTORE POP POP JUMP JUMPDEST PUSH0 PUSH1 0x20 DUP3 ADD SWAP1 POP PUSH2 0x18AD PUSH0 DUP4 ADD DUP5 PUSH2 0x188B JUMP JUMPDEST SWAP3 SWAP2 POP POP JUMP JUMPDEST PUSH2 0x18BC DUP2 PUSH2 0x1882 JUMP JUMPDEST DUP2 EQ PUSH2 0x18C6 JUMPI PUSH0 DUP1 REVERT JUMPDEST POP JUMP JUMPDEST PUSH0 DUP2 CALLDATALOAD SWAP1 POP PUSH2 0x18D7 DUP2 PUSH2 0x18B3 JUMP JUMPDEST SWAP3 SWAP2 POP POP JUMP JUMPDEST PUSH0 DUP1 PUSH1 0x40 DUP4 DUP6 SUB SLT ISZERO PUSH2 0x18F3 JUMPI PUSH2 0x18F2 PUSH2 0x17F9 JUMP JUMPDEST JUMPDEST PUSH0 PUSH2 0x1900 DUP6 DUP3 DUP7 ADD PUSH2 0x1843 JUMP JUMPDEST SWAP3 POP POP PUSH1 0x20 PUSH2 0x1911 DUP6 DUP3 DUP7 ADD PUSH2 0x18C9 JUMP JUMPDEST SWAP2 POP POP SWAP3 POP SWAP3 SWAP1 POP JUMP JUMPDEST PUSH0 DUP2 ISZERO ISZERO SWAP1 POP SWAP2 SWAP1 POP JUMP JUMPDEST PUSH2 0x192F DUP2 PUSH2 0x191B JUMP JUMPDEST DUP3 MSTORE POP POP JUMP JUMPDEST PUSH0 PUSH1 0x20 DUP3 ADD SWAP1 POP PUSH2 0x1948 PUSH0 DUP4 ADD DUP5 PUSH2 0x1926 JUMP JUMPDEST SWAP3 SWAP2 POP POP JUMP JUMPDEST PUSH0 PUSH1 0x60 DUP3 ADD SWAP1 POP PUSH2 0x1961 PUSH0 DUP4 ADD DUP7 PUSH2 0x188B JUMP JUMPDEST PUSH2 0x196E PUSH1 0x20 DUP4 ADD DUP6 PUSH2 0x188B JUMP JUMPDEST PUSH2 0x197B PUSH1 0x40 DUP4 ADD DUP5 PUSH2 0x1926 JUMP JUMPDEST SWAP5 SWAP4 POP POP POP POP JUMP JUMPDEST PUSH0 DUP1 PUSH0 PUSH1 0x60 DUP5 DUP7 SUB SLT ISZERO PUSH2 0x199A JUMPI PUSH2 0x1999 PUSH2 0x17F9 JUMP JUMPDEST JUMPDEST PUSH0 PUSH2 0x19A7 DUP7 DUP3 DUP8 ADD PUSH2 0x1843 JUMP JUMPDEST SWAP4 POP POP PUSH1 0x20 PUSH2 0x19B8 DUP7 DUP3 DUP8 ADD PUSH2 0x1843 JUMP JUMPDEST SWAP3 POP POP PUSH1 0x40 PUSH2 0x19C9 DUP7 DUP3 DUP8 ADD PUSH2 0x18C9 JUMP JUMPDEST SWAP2 POP POP SWAP3 POP SWAP3 POP SWAP3 JUMP JUMPDEST PUSH0 PUSH1 0xFF DUP3 AND SWAP1 POP SWAP2 SWAP1 POP JUMP JUMPDEST PUSH2 0x19E8 DUP2 PUSH2 0x19D3 JUMP JUMPDEST DUP3 MSTORE POP POP JUMP JUMPDEST PUSH0 PUSH1 0x20 DUP3 ADD SWAP1 POP PUSH2 0x1A01 PUSH0 DUP4 ADD DUP5 PUSH2 0x19DF JUMP JUMPDEST SWAP3 SWAP2 POP POP JUMP JUMPDEST PUSH2 0x1A10 DUP2 PUSH2 0x181C JUMP JUMPDEST DUP3 MSTORE POP POP JUMP JUMPDEST PUSH0 PUSH1 0x20 DUP3 ADD SWAP1 POP PUSH2 0x1A29 PUSH0 DUP4 ADD DUP5 PUSH2 0x1A07 JUMP JUMPDEST SWAP3 SWAP2 POP POP JUMP JUMPDEST PUSH0 PUSH1 0x20 DUP3 DUP5 SUB SLT ISZERO PUSH2 0x1A44 JUMPI PUSH2 0x1A43 PUSH2 0x17F9 JUMP JUMPDEST JUMPDEST PUSH0 PUSH2 0x1A51 DUP5 DUP3 DUP6 ADD PUSH2 0x18C9 JUMP JUMPDEST SWAP2 POP POP SWAP3 SWAP2 POP POP JUMP JUMPDEST PUSH0 DUP1 PUSH1 0x40 DUP4 DUP6 SUB SLT ISZERO PUSH2 0x1A70 JUMPI PUSH2 0x1A6F PUSH2 0x17F9 JUMP JUMPDEST JUMPDEST PUSH0 PUSH2 0x1A7D DUP6 DUP3 DUP7 ADD PUSH2 0x1843 JUMP JUMPDEST SWAP3 POP POP PUSH1 0x20 PUSH2 0x1A8E DUP6 DUP3 DUP7 ADD PUSH2 0x1843 JUMP JUMPDEST SWAP2 POP POP SWAP3 POP SWAP3 SWAP1 POP JUMP JUMPDEST PUSH32 REDACTED_SECRET000000000000000000000000 PUSH0 MSTORE PUSH1 0x22 PUSH1 0x4 MSTORE PUSH1 0x24 PUSH0 REVERT JUMPDEST PUSH0 PUSH1 0x2 DUP3 DIV SWAP1 POP PUSH1 0x1 DUP3 AND DUP1 PUSH2 0x1ADC JUMPI PUSH1 0x7F DUP3 AND SWAP2 POP JUMPDEST PUSH1 0x20 DUP3 LT DUP2 SUB PUSH2 0x1AEF JUMPI PUSH2 0x1AEE PUSH2 0x1A98 JUMP JUMPDEST JUMPDEST POP SWAP2 SWAP1 POP JUMP JUMPDEST PUSH32 REDACTED_SECRET000000000000000000000000 PUSH0 DUP3 ADD MSTORE POP JUMP JUMPDEST PUSH0 PUSH2 0x1B29 PUSH1 0xF DUP4 PUSH2 0x1759 JUMP JUMPDEST SWAP2 POP PUSH2 0x1B34 DUP3 PUSH2 0x1AF5 JUMP JUMPDEST PUSH1 0x20 DUP3 ADD SWAP1 POP SWAP2 SWAP1 POP JUMP JUMPDEST PUSH0 PUSH1 0x20 DUP3 ADD SWAP1 POP DUP2 DUP2 SUB PUSH0 DUP4 ADD MSTORE PUSH2 0x1B56 DUP2 PUSH2 0x1B1D JUMP JUMPDEST SWAP1 POP SWAP2 SWAP1 POP JUMP JUMPDEST PUSH32 REDACTED_SECRET000000000000000000000000 PUSH0 MSTORE PUSH1 0x11 PUSH1 0x4 MSTORE PUSH1 0x24 PUSH0 REVERT JUMPDEST PUSH0 PUSH2 0x1B94 DUP3 PUSH2 0x1882 JUMP JUMPDEST SWAP2 POP PUSH2 0x1B9F DUP4 PUSH2 0x1882 JUMP JUMPDEST SWAP3 POP DUP3 DUP3 SUB SWAP1 POP DUP2 DUP2 GT ISZERO PUSH2 0x1BB7 JUMPI PUSH2 0x1BB6 PUSH2 0x1B5D JUMP JUMPDEST JUMPDEST SWAP3 SWAP2 POP POP JUMP JUMPDEST PUSH0 PUSH2 0x1BC7 DUP3 PUSH2 0x1882 JUMP JUMPDEST SWAP2 POP PUSH2 0x1BD2 DUP4 PUSH2 0x1882 JUMP JUMPDEST SWAP3 POP DUP3 DUP3 MUL PUSH2 0x1BE0 DUP2 PUSH2 0x1882 JUMP JUMPDEST SWAP2 POP DUP3 DUP3 DIV DUP5 EQ DUP4 ISZERO OR PUSH2 0x1BF7 JUMPI PUSH2 0x1BF6 PUSH2 0x1B5D JUMP JUMPDEST JUMPDEST POP SWAP3 SWAP2 POP POP JUMP JUMPDEST PUSH32 REDACTED_SECRET000000000000000000000000 PUSH0 MSTORE PUSH1 0x12 PUSH1 0x4 MSTORE PUSH1 0x24 PUSH0 REVERT JUMPDEST PUSH0 PUSH2 0x1C35 DUP3 PUSH2 0x1882 JUMP JUMPDEST SWAP2 POP PUSH2 0x1C40 DUP4 PUSH2 0x1882 JUMP JUMPDEST SWAP3 POP DUP3 PUSH2 0x1C50 JUMPI PUSH2 0x1C4F PUSH2 0x1BFE JUMP JUMPDEST JUMPDEST DUP3 DUP3 DIV SWAP1 POP SWAP3 SWAP2 POP POP JUMP JUMPDEST PUSH0 PUSH2 0x1C65 DUP3 PUSH2 0x1882 JUMP JUMPDEST SWAP2 POP PUSH2 0x1C70 DUP4 PUSH2 0x1882 JUMP JUMPDEST SWAP3 POP DUP3 DUP3 ADD SWAP1 POP DUP1 DUP3 GT ISZERO PUSH2 0x1C88 JUMPI PUSH2 0x1C87 PUSH2 0x1B5D JUMP JUMPDEST JUMPDEST SWAP3 SWAP2 POP POP JUMP JUMPDEST PUSH32 REDACTED_SECRET000000000000000000000000 PUSH0 DUP3 ADD MSTORE POP JUMP JUMPDEST PUSH0 PUSH2 0x1CC2 PUSH1 0xE DUP4 PUSH2 0x1759 JUMP JUMPDEST SWAP2 POP PUSH2 0x1CCD DUP3 PUSH2 0x1C8E JUMP JUMPDEST PUSH1 0x20 DUP3 ADD SWAP1 POP SWAP2 SWAP1 POP JUMP JUMPDEST PUSH0 PUSH1 0x20 DUP3 ADD SWAP1 POP DUP2 DUP2 SUB PUSH0 DUP4 ADD MSTORE PUSH2 0x1CEF DUP2 PUSH2 0x1CB6 JUMP JUMPDEST SWAP1 POP SWAP2 SWAP1 POP JUMP JUMPDEST PUSH32 REDACTED_SECRET000000000000000000000000 PUSH0 DUP3 ADD MSTORE POP JUMP JUMPDEST PUSH0 PUSH2 0x1D2A PUSH1 0x14 DUP4 PUSH2 0x1759 JUMP JUMPDEST SWAP2 POP PUSH2 0x1D35 DUP3 PUSH2 0x1CF6 JUMP JUMPDEST PUSH1 0x20 DUP3 ADD SWAP1 POP SWAP2 SWAP1 POP JUMP JUMPDEST PUSH0 PUSH1 0x20 DUP3 ADD SWAP1 POP DUP2 DUP2 SUB PUSH0 DUP4 ADD MSTORE PUSH2 0x1D57 DUP2 PUSH2 0x1D1E JUMP JUMPDEST SWAP1 POP SWAP2 SWAP1 POP JUMP JUMPDEST PUSH32 REDACTED_SECRET000000000000000000000000 PUSH0 DUP3 ADD MSTORE POP JUMP JUMPDEST PUSH0 PUSH2 0x1D92 PUSH1 0xA DUP4 PUSH2 0x1759 JUMP JUMPDEST SWAP2 POP PUSH2 0x1D9D DUP3 PUSH2 0x1D5E JUMP JUMPDEST PUSH1 0x20 DUP3 ADD SWAP1 POP SWAP2 SWAP1 POP JUMP JUMPDEST PUSH0 PUSH1 0x20 DUP3 ADD SWAP1 POP DUP2 DUP2 SUB PUSH0 DUP4 ADD MSTORE PUSH2 0x1DBF DUP2 PUSH2 0x1D86 JUMP JUMPDEST SWAP1 POP SWAP2 SWAP1 POP JUMP JUMPDEST PUSH0 PUSH1 0x60 DUP3 ADD SWAP1 POP PUSH2 0x1DD9 PUSH0 DUP4 ADD DUP7 PUSH2 0x1A07 JUMP JUMPDEST PUSH2 0x1DE6 PUSH1 0x20 DUP4 ADD DUP6 PUSH2 0x188B JUMP JUMPDEST PUSH2 0x1DF3 PUSH1 0x40 DUP4 ADD DUP5 PUSH2 0x188B JUMP JUMPDEST SWAP5 SWAP4 POP POP POP POP JUMP INVALID LOG2 PUSH5 0x6970667358 0x22 SLT KECCAK256 0xE5 GASPRICE STATICCALL 0xF9 0xC4 BASEFEE CODECOPY 0x27 INVALID 0xCF MLOAD SWAP15 0xD2 0x4C PUSH32 REDACTED_SECRET6C6343000814003300000000 "},"methodIdentifiers":{"BURN_FEE_PERCENT()":"fad5c5b3","TREASURY_FEE_PERCENT()":"e111703a","allowance(address,address)":"dd62ed3e","approve(address,uint256)":"095ea7b3","balanceOf(address)":"70a08231","claimReward()":"b88a802f","decimals()":"313ce567","name()":"06fdde03","owner()":"8da5cb5b","renounceOwnership()":"715018a6","rewards(address)":"0700037d","setTreasuryAddress(address)":"6605bfda","stake(uint256)":"a694fc3a","stakes(address)":"16934fc4","symbol()":"95d89b41","totalBurned()":"d89135cd","totalSupply()":"18160ddd","transfer(address,uint256)":"a9059cbb","transferFrom(address,address,uint256)":"23b872dd","transferOwnership(address)":"f2fde38b","treasuryAddress()":"c5f956af","unstake()":"2def6620"}}}}}